:020000040800F2
:10000000F80B002001010008A72000086D18000867
:10001000A52000084B0200089527000800000000FA
:1000200000000000000000000000000003240008A1
:10003000610200080000000001240008712400088B
:100040001B0100081B0100081B0100081B01000820
:100050001B0100081B0100081B0100081B01000810
:100060001B0100081B0100081B0100081B01000800
:100070001B0100081B0100081B0100081B010008F0
:100080001B0100081B0100081B0100081B010008E0
:100090001B0100081B0100081B0100081B010008D0
:1000A0001B0100081B0100081B0100081B010008C0
:1000B0001B0100081B0100081B0100081B010008B0
:1000C0001B0100081B0100081B0100081B010008A0
:1000D0001B0100081B0100081B0100086D27000818
:1000E0001B0100081B0100081B010008DFF80CD0F1
:1000F00000F08AF8004800473D330008F80B002064
:100100000648804706480047FEE7FEE7FEE7FEE7B1
:10011000FEE7FEE7FEE7FEE7FEE7FEE7D324000882
:10012000ED000008202A04DB203A21FA02F0002129
:10013000704721FA02F3D040C2F1200291400843F7
:1001400019467047D2B201E000F8012B491EFBD2DC
:1001500070470022F6E710B513460A4604461946D2
:10016000FFF7F0FF204610BD30B505462A460B4686
:1001700012F8010B13F8014B08B1A042F8D01CB1E2
:10018000002802D06D1CF1E7284630BD30B504468A
:100190000020034600E05B1C934203D2E05CCD5C90
:1001A000401BF8D030BD2DE9F05F05460020924697
:1001B0009B4688460646814640241BE02846414629
:1001C00047462246FFF7AEFF53465A46C01A9141B2
:1001D00010D311461846224600F028F82D1A67EB76
:1001E00001084F4622460120002100F01FF817EBBE
:1001F00000094E41201EA4F10104DFDC48463146CF
:100200002A464346BDE8F09F064C074D06E0E068ED
:1002100040F0010394E8070098471034AC42F6D34D
:10022000FFF768FF84580008A4580008202A04DB60
:10023000203A00FA02F1002070479140C2F12003F9
:1002400020FA03F3194390407047FEE701B53223CB
:1002500001226946014801F0B8FA08BD3C010020BE
:10026000704772B6FEE7000070B5164C01222021DF
:10027000204600F018FB01221021204600F013FB5D
:1002800001220821204600F00EFB0122D503294659
:100290000D4800F008FB01221103204600F003FB8B
:1002A00001225103204600F0FEFA0122910320466C
:1002B00000F0F9FA29462046BDE87040012200F01E
:1002C000F2BA0000000C01400008014070B50C4675
:1002D000054602F0B9F802F095F80120FFF7B6FFE5
:1002E000072002F0BAF80C20FFF7B0FF280AFFF74A
:1002F000ADFFE8B2FFF7AAFF200AFFF7A7FFE0B2C1
:10030000FFF7A4FFE8B200EB152000EB1420E1B2E8
:100310000844143002F08EF84FF4FA6001F046FC05
:1003200008B1407A70BDFF2070BD10B502F08CF8A6
:1003300002F068F80120FFF789FF032002F08DF832
:100340000D20FFF783FF112002F074F84FF4FA60DC
:1003500001F02CFC08B1407A10BDFF2010BD10B593
:10036000044602F071F802F04DF80120FFF76EFF2D
:10037000042002F072F80220FFF768FF2046FFF722
:1003800065FFE01D02F056F84FF4FA6001F00EFC34
:1003900008B1407A10BDFF2010BD10B502F054F82E
:1003A00002F030F80120FFF751FF032002F055F86A
:1003B0000120FFF74BFF052002F03CF84FF4FA60F4
:1003C00001F0F4FB08B1407A10BDFF2010BD000021
:1003D00010B5044602F038F802F014F80120FFF7D7
:1003E00035FF0020FFF732FF0020FFF72FFFC82066
:1003F00000F052F90E48017859B1002101700D4901
:100400000878EF2805D14878012802D18879072893
:1004100001D0012010BD48798A7800EB0260CA78CB
:100420000979120402EB012108442060002010BD6C
:10043000100000200406002010B502F005F801F0BD
:10044000E1FF0120FFF702FF032002F006F803207E
:10045000FFF7FCFE072001F0EDFF4FF4FA6001F01A
:10046000A5FB08B1407A10BDFF2010BD10B501F00A
:10047000EBFF01F0C7FF0120FFF7E8FE032001F0CA
:10048000ECFF0520FFF7E2FE092001F0D3FF4FF457
:10049000FA6001F08BFB08B1407A10BDFF2010BD5F
:1004A0002DE9F0411E4614460D46074601F0CCFFEB
:1004B00001F0A8FF0120FFF7C9FE082001F0CDFFE1
:1004C0000420FFF7C3FE3846FFF7C0FE280AFFF7F7
:1004D000BDFEE8B2FFF7BAFE200AFFF7B7FEE0B2B2
:1004E000FFF7B4FE07EB1520E9B2084400EB142037
:1004F000E1B208440D3001F09DFF4FF4FA6001F0C5
:1005000055FB58B1C27A837A417A02EB03223280DA
:10051000427B007B02EB0020708000E0FF21084658
:10052000BDE8F08170B50C46054601F08DFF01F085
:1005300069FF0120FFF78AFE062001F08EFF0620EA
:10054000FFF784FE2846FFF781FE200AFFF77EFEB4
:10055000E0B2FFF77BFE05EB1420E1B208440D305A
:1005600001F068FF4FF4FA6001F020FB08B1407A17
:1005700070BDFF2070BD10B5044601F065FF01F0AD
:1005800041FF0120FFF762FE032001F066FF1D20FE
:10059000FFF75CFE212001F04DFF4FF4FA6001F0FF
:1005A00005FB30B1417AC27A807A02EB00202080CC
:1005B00000E0FF21084610BD10B590F82110002280
:1005C000022905D00421816380F82020012010BD7C
:1005D00001680B6823F00E030B6001680B6823F0C1
:1005E00001030B6090F84030C46B012101FA03F362
:1005F000636080F8211080F82020104610BD0000B4
:1006000010B590F821100024022903D00421816341
:1006100001243DE001680A6822F00E020A600168C8
:100620000A6822F001020A601A4A0168914201D167
:10063000012121E0174A1432914201D110211BE01F
:10064000144A2832914201D1891515E0114A3C32F1
:10065000914201D189140FE00E4A5032914202D1E9
:100660004FF4803108E00B4A6432914202D14FF4DA
:10067000801101E04FF08071064A083A5160012173
:1006800080F82110002180F82010416B01B18847CB
:10069000204610BD0800024070B5044600F008F97D
:1006A0000546601C02D004480078044400F000F9BC
:1006B000401BA042FAD370BD000000202DE9F84F86
:1006C000DFF8B8910024A9F1040B23460F2709F1A4
:1006D000040AABF1040EC9E00125A5402A40AA4254
:1006E0007DD1674ED1F804C0ACEB0608B44532D0DA
:1006F00014DCBCF1030F3AD009DCBCF1000F2AD0A6
:10070000BCF1010F1CD0BCF1020F31D11DE0BCF1D6
:10071000110F17D0BCF1120F2AD119E0B8F5881FBC
:1007200019D006DCB8F5803F15D0B8F5801F1FD171
:1007300011E0B8F5001F0ED0B8F5041F18D10AE07B
:10074000CB6815E0CB681B1D12E0CB6808330FE0C7
:10075000CB680C330CE08B682BB1012B4FF00803F6
:1007600003D0456104E0042302E0056100E00023BA
:10077000FF2A01D8064601E000F104064FEA84058D
:1007800001D9A5F12005D6F8008007FA05FC28EA72
:100790000C0803FA05F548EA0508C6F800804D681C
:1007A000ED0062D5374DAE6946F00106AE61AD6928
:1007B00024F0030605F001050095334D06EB050C0A
:1007C000DCF80850A607360F07FA06F825EA0805F0
:1007D000DFF8B880404503D14FF0000817E044E04F
:1007E000DFF8AC80404502D14FF001080FE0DFF8A0
:1007F000A480404502D14FF0020808E0DFF898805D
:10080000404502D14FF0030801E04FF0040808FA18
:1008100006F848EA0508CCF808804D68D9F8006069
:10082000ED024D4601D5164300E096432E604D681B
:10083000DAF80060AD02554601D5164300E0964354
:100840002E604D68DBF80060AD035D4601D51643B0
:1008500000E096432E604D68DEF80060ED037546BB
:1008600001D5164300E096432E60641C0D682A46AD
:10087000E5407FF431AFBDE8F88F00000804014087
:10088000000011100010024000000140000801406B
:10089000000C014000100140001401408068084035
:1008A00000D0012070470AB1016170470904FBE7DD
:1008B00001488068704700000000002070B5040007
:1008C00025D094F83D00002520B984F83C502046FE
:1008D00000F0E6F9242084F83D002068016821F04A
:1008E000010101602068016841F400410160206855
:1008F000016821F40041016000F02EFB4D4A61685F
:10090000914201D84C4900E04C49884201D2012073
:1009100070BD4B492368B0FBF1F15E6826F03F06DD
:100920000E435E606368934206D94FF49673594351
:100930004FF47A73B1FBF3F12368491C1E6A26F069
:100940003F06314319626168914210D84900401E48
:10095000B0FBF1F2521CC2F30B02042A01D20420B4
:1009600022E0B0FBF1F0401CC0F30B001CE0A268D9
:10097000F2B301EBC10303EB0116431EB3FBF6F325
:100980005B1C43F480431B0549D092B301EBC102C9
:1009900002EB0111401EB0FBF1F0401CC0F30B0054
:1009A00040F4804040F400402168CA694CF6FF736F
:1009B0009A431043C861D4E90710014320680268D4
:1009C00022F0C00211430160D4E903010143206811
:1009D000826848F2FF339A4311438160D4E90501EC
:1009E00008432168CA6822F0FF021043C86001E092
:1009F0000EE016E02068016841F001010160256405
:100A0000202084F83D00256384F83E50002070BD0E
:100A100001EB4106431EB3FBF6F35B1CB3E7012079
:100A2000C2E701EB4101401EB0FBF1F0401CC0F3F6
:100A30000B00B7E7A086010080841E0000093D007E
:100A400040420F002DE9FF4F83B00025DDE910790A
:100A50009A4693460446DDF848800095FFF728FF44
:100A6000064694F83D0020287CD1192301228849AC
:100A70002046009600F090FF0028F5D194F83C0045
:100A800001286FD0012084F83C0020680168C90764
:100A900003D1016841F0010101602068016821F47F
:100AA00000610160222084F83D00402084F83E006F
:100AB00025646762A4F82A90608D20857548E062FD
:100AC000CDE9008653465A462046049900F0E6FEDA
:100AD00000287CD1208DDFF8C091202768B1012843
:100AE00014D00228206801681ED041F480610160A2
:100AF0002068416980690090BCE020684169816993
:100B00000091016841F400710160B3E02068016860
:100B100021F48061016072B62068416981690091A9
:100B2000016841F400710AE041F40061016072B6AD
:100B30002068416981690091016821F48061016048
:100B400062B697E0032865D801280CD002284346F6
:100B50004FF000024946204600960BD000F01CFFE3
:100B6000A8BB0CE091E032464146204600F0BAFFB7
:100B700068BB72E000F010FF48BB72B633E020683B
:100B8000016821F48061016072B620680069616AC1
:100B90000870606A401C6062208D401E2085608D58
:100BA000401E60853D4846F2A8110068B0FBF1F098
:100BB000C0EBC00000EB80000090401E009007D00A
:100BC00020684069C04340070DD50098F5E727E04D
:100BD00044F8305F6773A573206940F020002061FE
:100BE00062B625731CE02068016841F40071016061
:100BF00020680069616A0870606A401C6062218D2B
:100C0000491E2185618D491E618562B62168096989
:100C1000017026E032464146204600F063FF18B1DD
:100C2000012007B0BDE8F08F20680069616A087094
:100C3000606A401C6062208D401E81B22185608DFB
:100C4000401E608520684269D243520712D40329AE
:100C500003D1016821F48061016020680069616A44
:100C60000870606A401C6062208D401E2085608D87
:100C7000401E6085208D00287FF464AF84F83D70AD
:100C800084F83E5084F83C50CBE70220C9E70000CE
:100C9000020010000000FFFF040001000C00002013
:100CA00010B586B000210091019102910391006876
:100CB0000F4988421AD10F4CA06940F00800A0618A
:100CC000A069694600F008000490C020009012203E
:100CD0000190032003900848FFF7F0FCE06940F41E
:100CE0000010E061E06900F40010049006B010BD4F
:100CF0000054004000100240000C0140024881688E
:100D0000027811448160704700000020074810B548
:100D1000016841F010010160032000F075F80F2018
:100D200000F006F800F024F8002010BD002002407A
:100D300070B50D4D04464FF47A712878B1FBF0F090
:100D40000A490968B1FBF0F000F0DCFA48B9102C50
:100D500007D200222146501E00F036F800206C60B9
:100D600070BD012070BD0000000000200C000020BC
:100D70000C4808B5816941F001018161816901F088
:100D800001010091C16941F08051C161C06900F069
:100D9000805000900448416821F0E06141F000710A
:100DA000416008BD0010024000000140002809DB3E
:100DB00000F01F02012191404009800000F1E02075
:100DC000C0F8001170470000F0B40E4B1B680C46D1
:100DD000C3F30223C3F10705042D00D90425191D0F
:100DE000072901D2002300E0DB1E012606FA05F1E7
:100DF000491E214099409E40761E16403143F0BC6A
:100E000001F008BD0CED00E0064900F0070208689B
:100E10004FF6FF03184040EA0220034A10430860DF
:100E2000704700000CED00E00000FA052DE9F047E6
:100E30000F46050061D0434E306800F00700B8420D
:100E400009D2306820F0070038433060306800F085
:100E50000700B84251D128683B4C810712D54007A2
:100E600003D5606840F4E06060602878000703D52F
:100E7000606840F4605060606068A96820F0F0002D
:100E8000084360602878C00728D06868012810D01F
:100E90002168022810D0890700292EDA616821F024
:100EA000030101436160FFF703FD804641F2883989
:100EB0000DE021688903EFE78901EDE7FFF7F8FC12
:100EC000A0EB0801494502D90320BDE8F08760681E
:100ED000696800F00C00B0EB810FEFD1306800F0D2
:100EE0000700B8420BD9306820F007003843306063
:100EF000306800F00700B84201D00120E5E728780B
:100F0000400705D56068E96820F4E0600843606048
:100F10002878000706D56068296920F4605040EA07
:100F2000C100606000F038F86168084AC1F303113D
:100F3000515CC8400649086006480068FFF7F8FEA3
:100F40000020C2E700200240001002405A3A000888
:100F50000C0000200400002004480549006849688E
:100F6000044AC1F30221515CC84070470C000020C4
:100F7000001002406A3A00080448054900684968C0
:100F8000044AC1F3C221515CC84070470C000020E4
:100F9000001002406A3A00080E4A51680E4801F0FB
:100FA0000C03042B11D0082B0FD10C48C1F3834341
:100FB000C903C05C0AD55168084AC1F34041921E7A
:100FC000515C054A5043B0FBF1F070470449484377
:100FD000704700000010024000127A004A3A0008F0
:100FE00000093D002DE9F84F040070D02078C04D75
:100FF000C00749D06868C0F38100012807D068683D
:10100000C0F38100022809D16868C00306D52868AA
:10101000800339D560680028E7D035E06068B0F516
:10102000803F0BD010B1B0F5A02F11D0286820F46C
:1010300080302860286820F4802002E0286840F48E
:1010400080302860606890B1FFF732FC06460AE005
:10105000286840F480202860F0E700BFFFF728FCF4
:10106000801B642873D828688003F7D50CE0FFF74D
:101070001FFC064605E000BFFFF71AFC801B642832
:10108000F0D828688003F7D420789A4E80074FF074
:1010900001094FF0000839D5686810F00C0F07D02F
:1010A0006868C0F38100022809D16868C00306D4CB
:1010B0002868800714D52069012808D110E020692C
:1010C000B0B1C6F80090FFF7F3FB074605E00AE170
:1010D000FFF7EEFBC01B0228C4D828688007F7D5AD
:1010E0002868616920F0F80040EAC10028600DE03E
:1010F000C6F80080FFF7DCFB074604E0FFF7D8FBEB
:10110000C01B022823D828688007F7D4207800075E
:101110002CD57948A169D9B1C0F80090FFF7C8FB78
:10112000074604E0FFF7C4FBC01B02280FD8686A1B
:101130008007F7D571484FF4FA510068B0FBF1F021
:10114000009000BF0098411E0091FAD20EE080E0AE
:10115000C0F80080FFF7ACFB074604E0FFF7A8FBF0
:10116000C01B022875D8686A8007F7D4207840072A
:1011700060D5E8690027C00008D4E86940F08050D5
:10118000E861E869012700F0805000905C48016840
:10119000C90513D40168834641F480710160FFF7EB
:1011A00087FB824606E000BFFFF782FBA0EB0A0048
:1011B00064284ED8DBF80000C005F5D5E0680128AA
:1011C0000AD008B1052813D0286A20F0010028624F
:1011D000286A20F0040002E0286A40F0010028623A
:1011E000E06841F2883B98B1FFF762FB82460BE072
:1011F000286A40F004002862EEE700BFFFF758FBC2
:10120000A0EB0A0159455AD8286A8007F6D50CE0A8
:10121000FFF74EFB824605E0FFF74AFBA0EB0A0111
:1012200059454CD8286A8007F6D41FB1E86920F0E8
:101230008050E861E06988B36968C1F381010229DF
:1012400044D00228C6F8608004D0FFF731FB044682
:1012500038E034E0FFF72CFB074604E0FFF728FBFB
:10126000C01B02282BD828688001F7D4206AB0F56B
:10127000803F05D16868A16820F4003008436860A9
:10128000D4E908010843696821F4741108436860CF
:10129000C6F86090FFF70CFB044606E025E000BFAF
:1012A000FFF706FB001B022809D828688001F7D544
:1012B0001BE000BFFFF7FCFA001B022802D9032045
:1012C000BDE8F88F28688001F4D40EE00128F7D03B
:1012D0006868226A00F48031914204D1616A00F4A6
:1012E0007010884201D00120EAE70020E8E7000002
:1012F0000010024000004242800442420C000020E4
:101300000070004010B5401EB0F1807F01D3012075
:1013100010BD4FF0E02460610F21601701F07AFAF0
:101320000020A06107202061002010BD7047704799
:1013300070B5044620680C3050E8001F21F490710D
:1013400040E80012002AF5D12068143050E8001F50
:1013500021F0010140E80012002AF5D1206B01289C
:1013600009D120680C3050E8001F21F0100140E83E
:101370000012002AF5D1206840694FF02002410692
:101380004FF0000015D52168143151E8003F23F0DB
:10139000400341E80035002DF5D1E16B49B1094822
:1013A0004863E06BFFF72CF950B1E06B416B884765
:1013B00006E0E08584F8422020632046FFF7B7FF6F
:1013C000002070BDE524000870470000F8B50168F2
:1013D00004460868CA684B6910F00F0F4FF000050B
:1013E00059D003F0010602F49077374365D0C10766
:1013F00005D0D10503D5616C41F00101616441075D
:1014000005D5D90703D0616C41F002016164810701
:1014100005D5D90703D0616C41F00401616401076F
:1014200007D502F02001314303D0616C41F008017F
:101430006164616C00293AD0800604D5900602D51B
:10144000204601F081F820684069616CC0F380108B
:10145000090700D460B3204601F04FF820684069C6
:10146000400621D52068143050E8001F21F04001CB
:1014700040E80012002AF5D1E06BA8B16D49416344
:10148000E06BFFF7BDF8002811D0E06B416B01B0B5
:10149000BDE8F040084783060FD593060DD52046DA
:1014A000BDE8F84001F050B82046FFF78DFFF8BDC9
:1014B0002046FFF789FF6564F8BD266B2023012EC7
:1014C0007CD1C6067AD5D60678D5086848680090DB
:1014D00048694FF00206400640D5E16B0868406855
:1014E0000004000CE8D0A28D8242E5D9E08588692D
:1014F00020282DD020680C3050E8001F21F4807186
:1015000040E80012002AF5D12068143050E8001F8E
:1015100021F0010140E80012002AF5D120681430C2
:1015200050E8001F21F0400140E80012002AF5D1E8
:1015300084F84230256320680C3050E8001F21F009
:10154000100140E80012002AF5D1E06BFFF734F8F3
:101550006663A08DE18D401A81B22AE0A08DE18DF5
:10156000401A81B2E08D0028A6D00029A4D02268BC
:101570000C3252E8000F20F4907042E80007002F70
:10158000F5D12068143050E8002F22F0010240E825
:101590000027002FF5D184F84230256320680C30F5
:1015A00050E8002F22F0100240E80023002BF5D174
:1015B00066632046FFF7BAFEF8BDFFE705062BD5A8
:1015C000150629D594F841002128F5D1A068B0F579
:1015D000805F01D12069B0B1206A411C216221687D
:1015E00000784860E08C401E0004000CE084E3D1E9
:1015F0002068C16821F08001C1602068C16841F0A5
:101600004001C160D8E7206A0088C0F30800486044
:10161000206A801C2062E5E74006CDD55006CBD578
:10162000CA68204622F04002CA6084F8413000F0C7
:101630001CF9C1E7D524000870B5040004D094F863
:101640004100002510B106E0012070BD84F8405033
:10165000204600F023F8242084F841002068C16867
:1016600021F40051C160204600F0D0FF20680169DC
:1016700021F4904101612068416921F02A01416112
:101680002068C16841F40051C1606564202084F87D
:10169000410084F842006563002070BDF0B585B05C
:1016A000002400940194029403940368394F0220AB
:1016B00039490322394D4602BB421AD18B6943F4A2
:1016C00080438B618B6903F4804304938B6943F0FF
:1016D00004038B618969039201F004010491010202
:1016E000CDE9001069462846FEF7E8FFCDE9006421
:1016F0001DE02B4FBB4221D1CB6943F40033CB61BA
:10170000CB6903F4003304938B6943F004038B61CA
:101710008969039201F0040104910421CDE90010CC
:1017200069462846FEF7CAFF0820CDE9000469464D
:1017300028460294FEF7C2FF05B0F0BD194DAB423A
:10174000FAD1CB6943F48023CB61CB6903F48023C6
:1017500004938B6943F008038B618969124D01F092
:101760000801CDE90321CDE9006069462846FEF76E
:10177000A5FFE814CDE90004694628460294FEF767
:101780009DFF002211462720FFF71EFB2720FFF7B1
:101790000DFBD1E700380140001002400008014075
:1017A0000044004000480040000C014090F84230E6
:1017B000202B01D00220704721B11AB1002303630E
:1017C00000F080BF0120704770472DE9F8430446C0
:1017D00090F84100984616460D46202802D0022077
:1017E000BDE8F88385B17EB100206064212084F8D3
:1017F0004100FFF75DF8A6848146E684A0682027B3
:10180000B0F5805F02D003E00120E9E7206910B164
:101810002E4600250EE000260CE08021204600F038
:101820006CFFA8B9C6B116F8010B21684860E08CBE
:10183000401EE084E08C4B464FF00002CDF8008063
:101840000028EAD14FF04001204600F056FF40B199
:1018500084F841700320C3E735F8020BC0F3080099
:10186000E3E784F841700020BAE77047FEE70168BB
:101870004A69D24352050FD46FF480624A61002155
:1018800040F8301F202242738173026942F0040243
:101890000261017301207047002070472DE9F84F65
:1018A0000446006889460B9D01689846174641F436
:1018B000806101602068016841F4807101600095D9
:1018C0004FF0011B0022594620460A9B00F064F8A5
:1018D0004FF4007A40B120680068C00501D5C4F813
:1018E00040A00320BDE8F88F216809F0FE000861E0
:1018F0002B46284920460A9A00F096F8F0BB20684B
:101900004169806900902A4620460A9900F022F930
:1019100040B1206C04283AD12068016841F400717C
:10192000016034E0FEB2B8F1010F09D02168380A35
:1019300008612A4620460A9900F00CF90028E8D1EF
:10194000206806612A4620460A9900F003F900281B
:10195000DFD12068016841F48071016000950022A8
:10196000594620460A9B00F017F80028B3D1216899
:1019700009F0FF0040F00100086100E007E02B469D
:10198000044920460A9A00F04FF80028AAD0012006
:10199000A8E70000020001002DE9F047984617462D
:1019A0000D460446C1F30746DDF820902AE000BF4B
:1019B000B8F1FF3F26D0FEF77BFFA0EB09014145C0
:1019C00002D8B8F1000F1DD12068012E16D0806911
:1019D00025EA00000004000C12D00020B84211D10A
:1019E000002044F8300F20216173A073216941F079
:1019F0002001216120730120BDE8F0874069E7E7FD
:101A00000120EBE72068012E0AD0806925EA00005A
:101A10000004000C06D00020B842C9D00020EBE73B
:101A20004069F3E70120F7E72DE9F04798461646AD
:101A30000D4604464FF000094FF0200AC1F3074756
:101A400023E020684069C043400515D42068016840
:101A500041F40071016021686FF480604861C4F84E
:101A6000309084F83DA084F83E90216C41F0040150
:101A7000216484F83C9021E0701C06D0FEF718FF2A
:101A8000A0EB0800B04203D816B1012F1FD021E00F
:101A90002068012F15D0806925EA00000004000CA1
:101AA00018D000BF44F8309F84F80DA084F80E9041
:101AB000216941F02001216184F80C900120BDE8EA
:101AC000F087406925EA00000004000CEAD1206894
:101AD000406901E02068806925EA00000004000CEC
:101AE000AFD1ECE72DE9F041002590460E460446C3
:101AF000202728E04069C043C0060CD454F8301BAE
:101B00006FF01000486144F810596777A577206A94
:101B10002062257714E0FEF7CBFEA0EB0800B04270
:101B200000D886B920684069C04340060BD544F808
:101B3000305F6773A573206940F020002061257332
:101B40000120BDE8F08120684169C9434906D1D42C
:101B50000020F6E770B516460D4604461EE0204606
:101B6000FFF785FE08B1012070BD681C16D0FEF796
:101B70009FFE801BA84200D885B920684069C043F9
:101B800000060BD5002044F8300F20216173A073AC
:101B9000216941F0200121612073E4E72068406958
:101BA000C0430006DBD4002070BD00007CB50546B4
:101BB000EF208DF80000144C01208DF801006168C1
:101BC000080E8DF80200080C8DF80300080A8DF845
:101BD000040007208DF805108DF8060000268DF80A
:101BE00007600BE00120FEF757FD207830B126702A
:101BF00069460648FEF7B8FA002804D16D1E2D0488
:101C00002D0CEFD100207CBD100000200406002028
:101C10002DE9F04385B000263748009601960296DC
:101C20000396816941F010018161816901F0100121
:101C30000491816941F020018161816901F02001F5
:101C40000491816941F004018161816901F004011D
:101C50000491816941F0080181618069274F00F09A
:101C600008004FF460440490012221463846FEF7F4
:101C70001AFEDFF88C80012248F203114046FEF77D
:101C800012FEDFF88090012238214846FEF70BFE55
:101C9000009401240325694638460194CDE90245A4
:101CA000FEF70CFD48F20300CDE90004694640460A
:101CB000CDE90245FEF702FD4FF47040CDE9000684
:101CC000694602944846FEF7F9FC2002CDE900047B
:101CD0000220CDE9020569464046FEF7EFFC3820B8
:101CE000CDE9000469464846CDE90245FEF7E6FC29
:101CF00005B0BDE8F0830000001002400010014074
:101D000000080140000C01400D4810B50B4901606E
:101D10000C49416000214FF480428160C0E9031208
:101D200041618161C1610162FEF7C8FD002803D0F5
:101D3000BDE81040FEF795BA10BD00000054004009
:101D400058000020A08601000C4810B50A49016027
:101D50004FF4E1314160002181600C22C160C0E993
:101D600004128161C161FFF767FC002803D0BDE860
:101D70001040FEF776BA10BD00380140AC000020DC
:101D80000C4810B50A4901604FF4E131416000216F
:101D900081600C22C160C0E904128161C161FFF75A
:101DA0004BFC002803D0BDE81040FEF75ABA10BD26
:101DB00000440040F40000200C4810B50A490160BE
:101DC0004FF461414160002181600C22C160C0E993
:101DD00004128161C161FFF72FFC002803D0BDE828
:101DE0001040FEF73EBA10BD004800403C01002004
:101DF0002DE9F05F0024FEF737FAA84D00222021DC
:101E00002846FEF750FDAF1439462846FEF746FD3A
:101E100060B90A20FEF740FC39462846FEF73EFD31
:101E20000028F9D00A20FEF737FC01244FF40056B1
:101E300031462846FEF732FD60B90A20FEF72CFC39
:101E400031462846FEF72AFD0028F9D00A20FEF781
:101E500023FC02244FF4804949462846FEF71EFD24
:101E600068B90A20FEF718FC4C4621462846FEF7C2
:101E700015FD0028F9D00A20FEF70EFC03244FF4CC
:101E8000004B59462846FEF709FD68B90A20FEF7BF
:101E900003FC5C4621462846FEF700FD0028F9D0E9
:101EA0000A20FEF7F9FB0424FEF7DEF900221021D8
:101EB0002846FEF7F8FC39462846FEF7EFFC60B9E5
:101EC0000A20FEF7E9FB39462846FEF7E7FC002822
:101ED000F9D00A20FEF7E0FB052431462846FEF73C
:101EE000DDFC60B90A20FEF7D7FB31462846FEF735
:101EF000D5FC0028F9D00A20FEF7CEFB062449467F
:101F00002846FEF7CBFC68B90A20FEF7C5FB4C4615
:101F100021462846FEF7C2FC0028F9D00A20FEF729
:101F2000BBFB072459462846FEF7B8FC68B90A20CF
:101F3000FEF7B2FB5C4621462846FEF7AFFC0028C0
:101F4000F9D00A20FEF7A8FB0824FEF78DF900223D
:101F500008212846FEF7A7FCBA4639462846FEF770
:101F60009DFC68B90A20FEF797FB54462146284697
:101F7000FEF794FC0028F9D00A20FEF78DFB092417
:101F8000B04631462846FEF789FC68B90A20FEF7BC
:101F900083FB444621462846FEF780FC0028F9D002
:101FA0000A20FEF779FB0A244F4649462846FEF7E9
:101FB00075FC60B90A20FEF76FFB39462846FEF72C
:101FC0006DFC0028F9D00A20FEF766FB0B245E4664
:101FD00059462846FEF762FC60B90A20FEF75CFB12
:101FE00031462846FEF75AFC0028F9D00A20FEF7B1
:101FF00053FB0C24FEF738F9002231462848FEF73F
:1020000052FC51462846FEF749FC68B90A20FEF703
:1020100043FB544621462846FEF740FC0028F9D0F1
:102020000A20FEF739FB0D2441462846FEF736FC10
:1020300068B90A20FEF730FB444621462846FEF7E1
:102040002DFC0028F9D00A20FEF726FB0E24394685
:102050002846FEF723FC60B90A20FEF71DFB39462F
:102060002846FEF71BFC0028F9D00A20FEF714FBD7
:102070000F2431462846FEF711FC60B90A20FEF70E
:102080000BFB31462846FEF709FC0028F9D00A2050
:10209000FEF702FB10242046BDE8F09F000C014033
:1020A00000080140FEE7FEE730B40021084B0A4675
:1020B0005FF0000003EBC004401CC0B262548028F3
:1020C000F8D3491CC9B20829F2D330BC00F0A0B83B
:1020D0008401002030B5CC0801F0070301259D40A4
:1020E000EBB2064D05EBC005C808285C0AB11843E1
:1020F00002E063EA0000C043285530BD840100209F
:1021000070B5424D4FF40054002221462846FEF798
:10211000CAFBC820FEF7C0FA012221462846FEF776
:10212000C2FB0021AE2000F029F90021084600F092
:1021300025F90021102000F021F90021402000F0B5
:102140001DF90021812000F019F90021CF2000F0B5
:1021500015F90021A12000F011F90021C82000F09C
:102160000DF90021A62000F009F90021A82000F0B7
:1021700005F900213F2000F001F90021D32000F0F3
:10218000FDF80021084600F0F9F80021D52000F004
:10219000F5F80021802000F0F1F80021D92000F0AE
:1021A000EDF80021F12000F0E9F80021DA2000F03C
:1021B000E5F80021122000F0E1F80021DB2000F01A
:1021C000DDF80021402000F0D9F80021202000F0A7
:1021D000D5F80021022000F0D1F800218D2000F078
:1021E000CDF80021142000F0C9F80021A42000F04F
:1021F000C5F80021A62000F0C1F8FFF755FFBDE8A3
:1022000070400021AF2000F0B9B800000008014084
:1022100070B5114E002400BF04F1B000C0B200211F
:1022200000F0ACF80021084600F0A8F800211020CA
:1022300000F0A4F85FF0000506EBC5000121005D89
:1022400000F09CF86D1CEDB2802DF5D3641CE4B257
:10225000082CE1D370BD0000840100202DE9FC4F63
:102260001C460E4682468B460190082B0DD0600717
:1022700000D0012000EBD40061084843C0B2814681
:10228000203AD0B2009000204BE00620F7E7082C5F
:1022900013D00C2C18D0102C1BD0182C44D1009823
:1022A000234900EBC00000BF01EB8001002711F8BB
:1022B0000850E80712D00B9A13E000981D4900EB74
:1022C000400001EB4001F1E700981B4900EB4000A2
:1022D000EAE71A49009801EB0011E7E70B9828B3E9
:1022E000002231465046FFF7F5FE761C7F1C6D0834
:1022F000FFB2F6B2082FDCD30AF1010000F0FF0AAA
:10230000082C0AD00199AAEB0100B0EB540F04D1BC
:102310000BF108008A4600F0FF0B08F101005E4651
:10232000C0B280464845B2D3BDE8FC8F0122D8E751
:10233000FE460008723A00089A3C00080E41000868
:102340002DE9F8411E46154688460446079F0BE0D6
:102350003346414620460097FFF780FF082E0AD0FB
:1023600004EB5600C4B26D1C2A78A2F120005E284E
:10237000EED9BDE8F881A41DE4B2F4E72DE9F047F9
:102380001D4C054609B1012200E000220121204632
:10239000FEF789FA00220221A0462046FEF783FAC2
:1023A000164F00244FF400494FF480460022314676
:1023B0003846FEF778FA280601D5012200E000220F
:1023C00049463846FEF76FFA012231463846FEF795
:1023D0006AFA6806641C050EE4B2082CE6D30122F2
:1023E000022144464046FEF75EFA2046BDE8F0472B
:1023F00001221146FEF757BA0008014000100140C3
:102400007047704710B50A4C6068000EFDF71EFF5C
:102410006068C0F30740FDF719FFA088C0F30720EC
:10242000FDF714FF2079BDE81040FDF70FBF000055
:102430001000002010B50446000AFDF707FFE0B2C7
:10244000BDE81040FDF702BF10B5EF20FDF7FEFE1E
:10245000BDE810400120FDF7F9BE10B50446C0F3F9
:102460000720FDF7F3FEE0B2BDE81040FDF7EEBE39
:10247000FEF744BC30B58FB028216846FDF769FEF1
:1024800014210AA8FDF765FE01210804CDE900101A
:102490000024029402250491CDE907504FF4E01086
:1024A00009906846FEF79EFD08B172B6FEE70F2060
:1024B000CDE90A054FF48060CDE90C4002210AA85D
:1024C0000E94FEF7B3FC002801D072B6FEE70FB001
:1024D00030BD704710B5406A0021C185C184FEF748
:1024E00073FF10BD10B5406A0021C185202280F81D
:1024F00042200163FEF71BFF10BD01680C3151E85B
:10250000002F22F4907241E80023002BF5D10168DE
:10251000143151E8002F22F0010241E80023002B82
:10252000F5D1016B012909D101680C3151E8002F67
:1025300022F0100241E80023002BF5D1202180F881
:10254000421000210163704708B590F8421022291B
:1025500001D0022008BD82684FF480539A4201D115
:10256000016921B1816A9A421BD04AB10AE002682E
:10257000816A5268C2F308020A80816A891C08E0F5
:10258000026972B10268526802F07F020A70816AC1
:10259000491C8162C18D491E0904090CC18503D003
:1025A0001BE002685268F1E70168CA6822F0200265
:1025B000CA600168CA6822F48072CA6001684A6908
:1025C00022F001024A61202180F84210002141637B
:1025D000026B012A03D0FFF7F7F8002008BD016362
:1025E00001680C3151E8002F22F0100241E800236D
:1025F000002BF5D101680A68D20602D50A6849683D
:102600000091818DFEF792FEE7E7000070B5044669
:1026100000680169E26821F44051114301612169B8
:10262000A0680843616908432168CA6841F20C63E5
:102630009A430243CA6020684169A26921F440714B
:10264000114341611E492068884202D1FEF794FC83
:1026500001E0FEF781FC00EBC00101EB00126068B5
:1026600064218000B2FBF0F3B3FBF1F36FF01806C6
:102670007343B2FBF0F5B2FBF0F605EB83053223B2
:1026800003EB0515B5FBF1F5B6FBF1F605F0F0052A
:1026900005EB0615B2FBF0F6B2FBF0F0B0FBF1F083
:1026A0006FF01802504306EB800003EB0010B0FB04
:1026B000F1F0216800F00F002844886070BD000030
:1026C0000038014081628285C28500214164222157
:1026D00080F84210016921B10168CA6842F4807231
:1026E000CA6001684A6942F001024A610068C16833
:1026F00041F02001C160002070472DE9F843984661
:1027000017460D460446089E24E0701C22D0FEF7B2
:10271000CFF8A0EB0800B0421AD8CEB12068C1684B
:10272000490717D5802D15D0402D13D00168C94316
:1027300009070FD401680025406800902046FFF784
:10274000DCFE0820606484F840500120BDE8F88376
:102750000320FBE72068006835EA000004D0002071
:10276000B842D2D00020F1E70120F9E7074810B5C0
:10277000006804680548FEF729FE0548044204D0B5
:10278000BDE81040014800F007B810BD3C01002032
:1027900010000010FEE7000038B50446006801682C
:1027A00040680090E08D0749C0F5FA700870204637
:1027B000FEF7BEFD2046BDE838404FF4FA720249EC
:1027C000FEF7F4BF10000020040600200FB4054BF4
:1027D00010B503A9044A029800F03CF810BC5DF85B
:1027E00014FB000041310008540000200FB4084BD6
:1027F00010B504A902AA039800F02CF8044602A917
:10280000002000F058FA204610BC5DF814FB0000D0
:10281000B72C00080907090E002804DB00F1E020AE
:1028200080F80014704700F00F0000F1E02080F8FD
:10283000141D704702E008C8121F08C1002AFAD10F
:1028400070477047002001E001C1121F002AFBD130
:10285000704700002DE9FF4F8DB00F46054600265A
:1028600006E025280BD0DDE90F1290476D1C761C81
:1028700028780028F5D111B03046BDE8F08F00244B
:10288000A246A1460122EC4900E0044315F8013FAD
:10289000203B02FA03F00842F7D128782A2810D00A
:1028A0006FF02F022878A0F13001092914D80AEB23
:1028B0008A0102EB410144F0020400EB010A6D1CA5
:1028C000F0E701CF5FEA000A03D544F40054CAF1EF
:1028D000000A44F002046D1C28782E2817D115F840
:1028E000010F44F004042A280ED06FF02F0228783C
:1028F000A0F1300109290AD809EB890102EB410155
:1029000000EB01096D1CF2E757F8049B6D1C287859
:102910006C280FD006DC4C2817D068280DD06A2808
:1029200014D104E0742810D07A280FD10DE044F4BB
:1029300000140AE044F4801401E044F4401469787F
:10294000814202D104F580146D1C6D1C2A786E2A18
:102950001FD00CDC632A31D004DC002A8BD0582A2B
:1029600011D1A3E0642A68D0692A0CD165E0732AEA
:102970002ED004DC6F2A73D0702A04D19BE0752A14
:102980006FD0782A6ED01046DDE90F129047761C82
:1029900050E1C4F30250022806D0032809D00428CD
:1029A00001CF09D0066045E101CFF117C0E9006110
:1029B00040E101CF06803DE106703BE117F8040BD2
:1029C0008DF8000000208DF80100EB46012003E0A7
:1029D00057F804BB4FF0FF3061074FF0000102D4FD
:1029E0000DE008F10101884649450FDA8045F8DB22
:1029F0001BF808100029F4D108E008F1010188460D
:102A00008142FADB1BF808100029F6D1DDE90F231B
:102A1000AAEB08008146214600F036F9304400EB6D
:102A2000080604E0DDE90F121BF8010B9047B8F12E
:102A30000108F7D221464846F7E00A21C4F30253C1
:102A40004FF0000B0891022B04D001CFC117032BCC
:102A500009D00AE0FF1D27F00707F7E8020108E0A8
:102A600032E01FE020E000B2C117042B01D140B2D8
:102A7000C117031E71F1000307DA4FF0000CD0EB11
:102A80000C006CEB01012D2302E0230504D52B2360
:102A90008DF82430012303E0E30701D02023F7E77A
:102AA000984658E00A2110E010210EE010204FF067
:102AB000000B08900CE010214FF0000B44F00404D0
:102AC0004FF00809089103E008214FF0000B08912E
:102AD000C4F30253022B04D001CF0021032B06D0F4
:102AE00006E0FF1D27F00707F7E8020103E080B2C8
:102AF000042B00D1C0B24FF0000823072BD5702A59
:102B000007D0DDF820C08CF0100C5CEA0B0C05D06F
:102B10000EE040238DF82430012308E050EA010341
:102B200006D030238DF824308DF8252002239846D6
:102B3000DDF820C08CF0080C5CEA0B0C0BD150EADD
:102B4000010301D1630706D530238DF824304FF0FF
:102B50000108A9F10109582A04D038A20B9208AA49
:102B60000A920BE03AA2F9E75B46089AFDF71BFBD5
:102B70000B9B9B5C0A9A521E0A92137050EA010248
:102B8000F2D10A98ADEB000000F1200B600702D5EE
:102B900024F4803401E04FF00109D94502DDA9EBAE
:102BA0000B0000E0002000EB0B0141440890AAEB71
:102BB000010AE00306D4DDE90F232146504600F068
:102BC00063F806444FF0000908E009A911F809006C
:102BD000DDE90F12904709F10109761CC145F4DBCC
:102BE000E0030CD5DDE90F232146504600F04CF8F8
:102BF000064404E0DDE90F1230209047761C089966
:102C0000481E08900029F5DC08E00A980A99007827
:102C1000491C0A91DDE90F129047761CBBF10001B7
:102C2000ABF1010BF1DC21465046DDE90F2300F04A
:102C300019F806446D1C1BE60928010030313233B7
:102C400034353637383961626364656600000000E8
:102C500030313233343536373839414243444546D2
:102C6000000000002DE9F041044600251E461746ED
:102C7000880404D405E039462020B0476D1C641E4A
:102C8000F9D52846BDE8F0812DE9F041044600253C
:102C90001E469046C80301D5302700E0202788044F
:102CA00004D505E041463846B0476D1C641EF9D591
:102CB0002846BDE8F0810A68531C0B60107070470D
:102CC0002DE9FF4700248246254640F2DC570126C5
:102CD0004FF47A784FF44879052D49D2DFE805F0B2
:102CE000031A29374100641CE4B2FFF7DDF90A2119
:102CF00008233CA208460096FFF722FBFFF788FA5C
:102D0000FDF74BFB50BB0120FDF729FB30BB002436
:102D100001250AE0641CE4B2FDF73FFBF0B9022094
:102D2000FDF71DFBD0B9002402254846FDF7B4FC91
:102D3000D2E7FDF781FB40B1002425464046FDF770
:102D4000ABFC4846FDF7A8FCCDE7032503E0FDF703
:102D50008DFB20B100254046FDF79EFC08E00425D0
:102D6000F9E71FFA8AF10220FDF7DCFBA8B1002584
:102D70004846FDF791FC0A2CAED1FFF795F90A21E0
:102D800008231CA208460096FFF7DAFAFFF740FA7C
:102D90003846FDF781FCBDE8FF87524617A101A820
:102DA000FFF724FDFFF780F90A21082315A2084642
:102DB0000096FFF7C5FA102301AA14210A200096F5
:102DC000FFF7BEFAFFF724FA1248FDF7D4FB1148CB
:102DD000018811A0FFF7FAFC3846FDF75DFCFFF70C
:102DE00063F9D8E766696E67657220746F7563680A
:102DF0000000000074696D656F75740049443A25E0
:102E00006400000066696E6765722073746F726596
:102E1000000000001800002056616C69644E2564B3
:102E20000D0A00001FB54FF6FF72012103A88DE8BF
:102E3000070010230022A1210448FDF703FE10B172
:102E4000002004B010BD0120FBE700005800002066
:102E50004FF6FF731B2202490248FEF7B6BC000082
:102E60002C000020F400002070B586B00125002160
:102E7000082322A208460095FFF762FAFFF7C8F977
:102E8000062103A800F074FC00244FF47A7600BFFA
:102E9000FFF70AF9002108231CA208460095FFF756
:102EA0004FFAFFF7B5F9062101A800F061FC0622F0
:102EB00001A903A8FDF76AF950B1641C032CE7DBF4
:102EC000FFF7F2F80823002114A2084600950CE051
:102ED000174801990160BDF808108180FFF7E4F8F8
:102EE000082314A2002114200095FFF729FAFFF708
:102EF0008FF93046FDF7D0FB06B070BD696E707576
:102F0000742070696E20666972737400656E7375E3
:102F10007265207468652070696E000070696E20AB
:102F2000636F6D70617265206572726F7200000070
:102F30004D00002070696E206368616E6765206FC8
:102F40006B0000004FF6FF73092202490248FEF7AA
:102F50003CBC000023000020F40000202DE9F043D9
:102F6000002485B001262746019402940394082387
:102F70006AA22146204600960494FFF7E1F908234F
:102F80006AA20A2100200096FFF7DAF910236AA24C
:102F900014210A200096FFF7D3F9102366A214210A
:102FA0001E200096FFF7CCF9FFF732F90DF110095A
:102FB0004FF00A08FEF71CFF05006ED0102D6CD2F2
:102FC000DFE805F06B0808086B1D1D1D6B31313102
:102FD0006B5D477D2A4659A101A8FFF707FC04EB6A
:102FE000840108EB8100C0B2102301AA14210096CD
:102FF000FFF7A6F9FFF70CF909F804503DE06A1E47
:103000004EA101A8FFF7F2FB04EB840108EB81005D
:10301000C0B2102301AA14210096FFF791F9FFF71F
:10302000F7F8681E12E0AA1E44A101A8FFF7DEFB14
:1030300004EB840108EB8100C0B2102301AA142123
:103040000096FFF77DF9FFF7E3F8A81E09F80400E2
:1030500013E0002239A101A8FFF7C8FB04EB8401AB
:1030600008EB8100C0B2102301AA14210096FFF7DB
:1030700067F9FFF7CDF809F80470641C0DE004EB64
:10308000840108EB8100C0B210232BA2142100960A
:10309000FFF756F9FFF7BCF8641E022C8AD1102DF9
:1030A00088D19DF810109DF8110001EB810100EB13
:1030B00041000121FDF70AF905B0BDE8F0831023B6
:1030C0001DA214210A200096FFF73AF910231AA234
:1030D00014211E200096FFF733F9102316A21421A5
:1030E00032200096FFF72CF9102313A2142146205A
:1030F0000096FFF725F910230FA214215A200096FD
:10310000FFF71EF910230CA214216E200096FFF782
:1031100017F9FFF77DF8002404974BE7696E707587
:10312000742066696E65722069643A00233A656EA0
:1031300073757265000000002A000000256400001D
:1031400013B54FF0FF33012269460248FEF73DFBFD
:1031500000981CBDAC0000202DE9F043002785B08D
:103160000126019702973C46039708236AA2394635
:10317000384604970096FFF7E3F808236AA20A216D
:1031800000200096FFF7DCF810236AA214210A2021
:103190000096FFF7D5F8102366A214211E20009692
:1031A000FFF7CEF8FFF734F80DF110094FF00A08D9
:1031B000FEF71EFE051E6EDD102D6CD2DFE805F059
:1031C0006B0808086B1D1D1D6B3131316B5D477D30
:1031D0002A4659A101A8FFF709FB04EB840108EB7B
:1031E0008100C0B2102301AA14210096FFF7A8F8AD
:1031F000FFF70EF809F804503DE06A1E4EA101A841
:10320000FFF7F4FA04EB840108EB8100C0B210234D
:1032100001AA14210096FFF793F8FEF7F9FF681E44
:1032200012E0AA1E44A101A8FFF7E0FA04EB840112
:1032300008EB8100C0B2102301AA14210096FFF709
:103240007FF8FEF7E5FFA81E09F8040013E000224E
:1032500039A101A8FFF7CAFA04EB840108EB810049
:10326000C0B2102301AA14210096FFF769F8FEF7F7
:10327000CFFF09F80470641C0DE004EB840108EB37
:103280008100C0B210232BA214210096FFF758F83A
:10329000FEF7BEFF641E022C8AD1102D88D1FEF7E6
:1032A00003FF9DF810109DF8110001EB810100EB68
:1032B000410005B0C0B2BDE8F08310231DA2142167
:1032C0000A200096FFF73CF810231AA214211E20B2
:1032D0000096FFF735F8102316A21421322000962D
:1032E000FFF72EF8102313A2142146200096FFF7B3
:1032F00027F810230FA214215A200096FFF720F878
:1033000010230CA214216E200096FFF719F8FEF787
:103310007FFF002404974BE7696E7075742066691F
:103320006E65722069643A00233A656E7375726542
:10333000000000002A0000002564000008B5FDF729
:10334000E5FCFFF797F8FEF763FCFEF7DDFCFEF700
:10335000FBFCFEF715FDFEF72FFDFEF7D1FE4FF447
:10336000FA7227492748FEF721FA26480068C16803
:1033700041F01001C16000224FF480712248FDF736
:1033800092FA6420FDF788F9012410231FA200217E
:103390001E200094FEF7D4FFFEF73AFFFFF742FD30
:1033A0004FF47A75C0B910231AA21421002000949A
:1033B000FEF7C6FFFEF72CFFFEE71421102319A22B
:1033C00008460094FEF7BCFFFEF722FF18A0FFF7A7
:1033D000FDF92846FDF760F91848FCF7F9FF0028C9
:1033E000EBD12846FDF758F9FEF75EFE14A0FFF773
:1033F000EDF9FCF79AFF00BF00F032F8FCE700009F
:10340000040600203C0100200008014057656C6361
:103410006F6D650041543234206469736D69737354
:103420006564000057616974696E67202E2E2E0056
:1034300077616974696E672E2E0D0A0014000020F2
:10344000676F0D0A000000004FF6FF730922024962
:103450000248FEF7BAB900001A000020F40000206C
:103460002DE9F04F85B00025DFF82C8201954FF44F
:1034700080774FF4FA7B4FF47A6A012440F6B8362D
:1034800002950021082385A208460094FEF758FF04
:10349000082387A2142100200094FEF751FF08237F
:1034A00087A2322114200094FEF74AFFFEF7B0FEF7
:1034B000FCF773FF002859D103AB4FF4967200213B
:1034C0000120FCF7EDFF8146014681A0FFF77EF960
:1034D000B9F1000F0ED06D1CFFF734FDFEF7E4FDCF
:1034E00008237FA2142100200094FEF729FFFEF795
:1034F0008FFE36E0BDF80E00642824D9FEF7D4FD17
:1035000008237CA2142100200094FEF719FFFEF787
:103510007FFEFFF799FF012239464046FDF7C3F9C8
:103520005846FDF7B9F8002239464046FDF7BBF989
:10353000002239464046FDF7B6F95046FDF7ACF893
:10354000FEF7B2FD9DE76D1CFEF7AEFD08236DA2F0
:10355000142100200094FEF7F3FEFEF759FEFFF75A
:10356000F1FC5046FDF798F8FEF79EFD032D31D093
:10357000FEF73EFC102831D0042882D1FEF794FDDE
:103580000025082364A200211E200094FEF7D8FE27
:10359000FEF73EFE062101A800F0EAF80622624985
:1035A00001A8FCF7F3FD00B3FEF77EFD142108230C
:1035B0005EA208460094FEF7C3FEFEF729FE3046E1
:1035C000FDF76AF8FEF770FD6D1C032DD9DB05B021
:1035D000BDE8F08F0025FFF73BFC52E7FEF764FDE6
:1035E00057A0FFF7F3F8002504E0FEF75DFD00F0BB
:1035F000ADF9ECE70021082353A208460094FEF73A
:103600009FFEFEF705FE062101A800F0B1F8062294
:10361000524901A8FCF7BAFDC8B1FEF745FDFFF716
:1036200091FC1421082341A208460094FEF788FE6D
:10363000FEF7EEFD3046FDF72FF8FEF735FD6D1C69
:10364000032DD7DB032DC2D1FFF702FCBFE7FFF745
:10365000FBFEFEF729FD1421082341A20846009431
:10366000FEF76EFEFEF7D4FD012239464446404681
:10367000FDF719F95846FDF70FF8002239462046A4
:10368000FDF711F9002239462046FDF70CF94FF4F9
:103690007A70FDF701F8D5E7000801402320746F28
:1036A00020696E7075742070696E206F7220000042
:1036B00066696E67657220746F756368000000004C
:1036C000533A41646D696E2073657474696E670066
:1036D000656E7375726520253032780D0A00000022
:1036E000537272792C646F6E2774206D61746368F5
:1036F000210000004D617463682C57656C636F6D29
:1037000065210000536F7272792C646F6E277420EC
:103710006D61746368210000696E70757420616466
:103720006D696E2070696E0047000020736F7272C1
:10373000792C646F6E2774206D61637468000000DB
:103740006675636B0D0A0000696E70757420706990
:103750006E20746F206F70656E0000004D000020B9
:103760006D617463682C57656C636F6D6521210012
:103770002DE9F04786B000248246059401252746AE
:1037800003940494019410236EA214210A2000953E
:103790000294FEF7D5FD10236AA214211E20009585
:1037A000FEF7CEFD102367A2142132200095FEF70C
:1037B000C7FD102363A2142146200095FEF7C0FD2B
:1037C000102360A214215A200095FEF7B9FD1023A2
:1037D0005CA214216E200095FEF7B2FDFEF718FDE5
:1037E0000DF104094FF00A08FEF702FB06006CD049
:1037F000102E6AD2DFE806F069080808691B1B1B57
:1038000069313131695B457532464FA103A8FEF736
:10381000EDFF04EB840108EB8100C0B2102303AA82
:1038200014210095FEF78CFDFEF7F2FC12E0721EEB
:1038300045A103A8FEF7DAFF04EB840108EB810041
:10384000C0B2102303AA14210095FEF779FDFEF7FC
:10385000DFFC761E09F8046027E0B21E3AA103A837
:10386000FEF7C4FF04EB840108EB8100C0B2102313
:1038700003AA14210095FEF763FDFEF7C9FCB61EEE
:10388000E8E7002230A103A8FEF7B0FF04EB8401B3
:1038900008EB8100C0B2102303AA14210095FEF7A3
:1038A0004FFDFEF7B5FC09F80470641C0DE004EB55
:1038B000840108EB8100C0B2102322A214210095DC
:1038C000FEF73EFDFEF7A4FC641E062C8CD1019988
:1038D000CAF80010BDF80810AAF8041006B0BDE838
:1038E000F087102317A214210A200095FEF728FD67
:1038F000102314A214211E200095FEF721FD102391
:1039000010A2142132200095FEF71AFD10230DA2FB
:10391000142146200095FEF713FD102309A214215F
:103920005A200095FEF70CFD102306A214216E20EC
:103930000095FEF705FDFEF76BFC0197002402974A
:1039400052E700002A0000002564000038B5012479
:1039500008232EA214210A200094FEF7F1FC08236C
:103960002EA21E210A200094FEF7EAFC08232FA2B3
:1039700028210A200094FEF7E3FC08232FA232211D
:103980000A200094FEF7DCFCFEF742FC08231FA28D
:1039900014210A200094FEF7D3FC08231FA21E2145
:1039A0000A200094FEF7CCFC082320A228210A203C
:1039B0000094FEF7C5FC082320A232210A200094BF
:1039C000FEF7BEFCFEF724FCFEF712FA0028DDDD50
:1039D000012809D002280CD0032811D00528D5D100
:1039E000BDE83840FEF760BBFEF75EFBFFF73CFA30
:1039F000CCE7FEF759FBFFF7AFFBFFF761F9C5E72F
:103A0000FEF752FBFFF7AAFAC0E70000313A6368FD
:103A1000616E67652070696E00000000323A616473
:103A2000642066696E67657200000000333A646561
:103A30006C6574652066696E67657200343A626110
:103A4000636B20686F6D65000102020304050607C1
:103A500008090A0B0C0D0E0F1010000000000000EA
:103A6000000001020304060708090000000001022B
:103A700003040000000000000000002F0000000010
:103A80000700070000147F147F1400242A7F2A12E5
:103A900000626408132300364955225000000503D4
:103AA000000000001C224100000041221C00001404
:103AB000083E08140008083E0808000000A0600046
:103AC00000080808080800006060000000201008D6
:103AD0000402003E5149453E0000427F4000004242
:103AE00061514946002141454B31001814127F10A5
:103AF000002745454539003C4A49493000017109D4
:103B0000050300364949493600064949291E000087
:103B1000363600000000563600000008142241002E
:103B2000001414141414000041221408000201515E
:103B3000090600324959513E007C1211127C007F67
:103B400049494936003E41414122007F4141221C02
:103B5000007F49494941007F09090901003E414967
:103B6000497A007F0808087F0000417F410000205B
:103B700040413F01007F08142241007F4040404007
:103B8000007F020C027F007F0408107F003E41414D
:103B9000413E007F09090906003E4151215E007F38
:103BA000091929460046494949310001017F0101AF
:103BB000003F4040403F001F2040201F003F403852
:103BC000403F006314081463000708700807006191
:103BD0005149454300007F41410000552A552A556F
:103BE000000041417F000004020102040040404007
:103BF0004040000001020400002054545478007F2B
:103C00004844443800384444442000384444487F01
:103C100000385454541800087E0901020018A4A466
:103C2000A47C007F080404780000447D400000402C
:103C300080847D00007F102844000000417F400008
:103C4000007C04180478007C08040478003844449C
:103C5000443800FC242424180018242418FC007C78
:103C60000804040800485454542000043F444020F1
:103C7000003C4040207C001C2040201C003C403088
:103C8000403C004428102844001CA0A0A07C004414
:103C900064544C4414141414141400000000000064
:103CA0000000000000000000FC0000000000020016
:103CB0000000000C020C020000000000000090D088
:103CC000BCD0BC900003000300001824FE448C000C
:103CD0000302070201001824D8B04C800003000141
:103CE0000201C038E438E0000102020102020806C5
:103CF00000000000000000000000000000F80402C6
:103D0000000000010204000204F8000000040201A7
:103D100000009060F860900000000100000020208A
:103D2000FC20200000000100000000000000000056
:103D300008060000000020202020200000000000D5
:103D400000000000000000000002000000000080F1
:103D5000601C0200040300000000F8040404F800E2
:103D60000102020201000008FC0000000002030240
:103D70000000188444241800030202020200080410
:103D80002424D80001020202010040B088FC800017
:103D90000000000302003C242424C40001020202AB
:103DA0000100F824242CC0000102020201000C04CE
:103DB000E41C0400000003000000D8242424D800E0
:103DC00001020202010038444444F80000030202E8
:103DD00001000000100000000000020000000000D0
:103DE00020000000000006000000002050880402AF
:103DF00000000000010290909090900000000000F0
:103E00000000000204885020000201000000180495
:103E1000C4241800000002000000F804E494F80034
:103E200001020202020000E09CF080000203000098
:103E3000030204FC2424D800020302020100F80457
:103E400004040C0001020202010004FC0404F80056
:103E500002030202010004FC24740C0002030202AB
:103E6000030004FC24740C00020302000000F008AC
:103E70000444CC4000010202010004FC2020FC04A8
:103E80000203000003020404FC0404000202030213
:103E90000200000404FC040406040403000004FC03
:103EA00024D00C0402030200030204FC04000000FE
:103EB000020302020203FC3CC03CFC0003000300BE
:103EC000030004FC30C4FC04020302000300F804F5
:103ED0000404F80001020202010004FC242418007A
:103EE000020302000000F8848404F80001020207C3
:103EF000050004FC24649800020302000302182455
:103F000024448C000302020201000C04FC040C0097
:103F100000020302000004FC0000FC040001020295
:103F20000100047C80E01C040000030000001CE091
:103F30003CE01C00000300030000049C609C0400A3
:103F4000020300030200041CE01C04000002030240
:103F500000000C84641C0400020302020300000041
:103F6000FE020200000007040400000E30C0000042
:103F7000000000010200000202FE0000000404072D
:103F80000000000402040000000000000000000027
:103F900000000000080808080808000002000000EF
:103FA0000000000000000040A0A0C00000010202CC
:103FB000030204FC2020C00000030202010000C034
:103FC0002020600000010202020000C02024FC004A
:103FD00000010202030200C0A0A0C0000001020212
:103FE00002000020F8242404000203020200004022
:103FF000A0A0602000070A0A0A0404FC2020C000D8
:104000000203020003020020E40000000002030299
:104010000000000020E4000008080807000004FC7D
:1040200080E020200203020003020404FC000000E0
:10403000020203020200E020E020C00003000300AF
:10404000030020E02020C00002030200030200C0A1
:104050002020C00000010202010020E02020C0005A
:10406000080F0A02010000C02020E0000001020A3F
:104070000F0820E040202000020302000000006042
:10408000A0A020000002020203000020F82000008F
:1040900000000102020020E00020E0000001020216
:1040A000030220E020806020000003010000608007
:1040B000E0806000000300030000206080602000BA
:1040C00002030003020020E02080602008080701AE
:1040D00000000020A0602000000203020200000097
:1040E00020DE0200000000070400000000FF0000C6
:1040F0000000000F00000002DE20000000040700A6
:1041000000000201020404020000000000000000A0
:10411000000000000000000000000000000000009F
:1041200000F8000000000000003330000000001024
:104130000C06100C0600000000000000000040C04B
:104140007840C0784000043F04043F04040000703D
:1041500088FC08300000001820FF211E0000F00835
:10416000F000E018000000211C031E211E0000F0DA
:104170000888700000001E21232419272110101622
:104180000E00000000000000000000000000000021
:1041900000E01804020000000007182040000002A0
:1041A0000418E00000000040201807000000404014
:1041B00080F0804040000202010F01020200000076
:1041C00000F0000000000101011F010101000000DA
:1041D00000000000000080B070000000000000003F
:1041E00000000000000000010101010101010000C8
:1041F000000000000000003030000000000000005F
:10420000000080601804006018060100000000E053
:1042100010080810E000000F102020100F00001000
:1042200010F8000000000020203F20200000007057
:10423000080808887000003028242221300000304F
:104240000888884830000018202020110E00000047
:10425000C02010F8000000070424243F240000F8C8
:104260000888880808000019212020110E0000E0AD
:10427000108888180000000F112020110E0000384F
:104280000808C83808000000003F00000000007067
:10429000880808887000001C222121221C0000E0F0
:1042A00010080810E0000000312222110F00000069
:1042B00000C0C0000000000000303000000000001E
:1042C000008000000000000080600000000000008E
:1042D0008040201008000001020408102000404027
:1042E000404040404000040404040404040000086A
:1042F000102040800000002010080402010000701F
:1043000048080808F0000000003036010000C03006
:10431000C828E810E0000718272423140B00000029
:10432000C038E0000000203C23020227382008F8B3
:10433000888888700000203F202020110E00C030A7
:10434000080808083800071820202010080008F87E
:1043500008080810E000203F202020100F0008F877
:104360008888E8081000203F20202320180008F843
:104370008888E8081000203F200003000000C030BB
:1043800008080838000007182020221E020008F83C
:1043900008000008F808203F210101213F20000803
:1043A00008F8080800000020203F2020000000003E
:1043B0000808F8080800C08080807F00000008F826
:1043C00088C028180800203F20012638200008F85F
:1043D000080000000000203F20202020300008F8C6
:1043E000F800F8F80800203F003F003F200008F8E0
:1043F00030C00008F808203F200007183F00E010F8
:1044000008080810E0000F10202020100F0008F806
:1044100008080808F000203F210101010000E01019
:1044200008080810E0000F18242438504F0008F83E
:10443000888888887000203F2000030C302000709E
:104440008808080838000038202121221C0018089C
:1044500008F8080818000000203F2000000008F8B5
:1044600008000008F808001F202020201F000878FE
:10447000880000C83808000007380E010000F8085E
:1044800000F80008F800033C0700073C0300081888
:1044900068808068180820302C03032C30200838EE
:1044A000C800C83808000000203F200000001008A5
:1044B0000808C838080020382621202018000000ED
:1044C00000FE020202000000007F40404000000C9D
:1044D00030C000000000000000010638C0000002EB
:1044E0000202FE000000004040407F00000000008B
:1044F00004020202040000000000000000000000AE
:1045000000000000000080808080808080800002A9
:104510000204000000000000000000000000000095
:104520008080808000000019242222223F2008F889
:10453000008080000000003F112020110E000000CC
:10454000008080800000000E11202020110000005B
:1045500000808088F800000E112020103F2000000D
:10456000808080800000001F222222221300008011
:1045700080F0888888180020203F2020000000005C
:10458000808080808000006B94949493600008F891
:10459000008080800000203F210000203F2000801C
:1045A0009898000000000020203F2020000000001C
:1045B00000809898000000C08080807F000008F88C
:1045C000000080808000203F24022D302000000861
:1045D00008F8000000000020203F2020000080801C
:1045E000808080808000203F20003F20003F80802E
:1045F000008080800000203F210000203F2000003C
:10460000808080800000001F202020201F008080EC
:1046100000808000000080FFA12020110E0000001B
:10462000008080808000000E112020A0FF8080800C
:1046300080008080800020203F21200001000000B9
:10464000808080808000003324242424190000808E
:1046500080E0808000000000001F2020000080809B
:10466000000000808000001F202020103F2080805C
:1046700080000080808000010E30080601008080EC
:104680000080008080800F300C030C300F00008011
:104690008000808080000020312E0E31200080803C
:1046A00080000080808080818E701806010000806C
:1046B0008080808080000021302C2221300000008A
:1046C0000000807C020200000000003F404000002B
:1046D0000000FF00000000000000FF0000000002DA
:1046E000027C800000000040403F00000000000607
:1046F00001010202040400000000000000000000AC
:1047000000000000000000000000000000000000A9
:104710000000000000000000000000000000000099
:1047200000000000000000F0F0F0000000000000B9
:10473000000000017F010000000000000000001CDC
:104740001C1C0000000000008060301C8C60301CCD
:104750000C0000000000000000000000000000004D
:1047600000000000000000000000000000E0000069
:10477000000000E000000086E69F86868686E69FB1
:10478000860000011F01010101011F01010000005D
:1047900080C06020F820E0C00000000003070C1873
:1047A000FF70E18100000000070F10107F100F075D
:1047B00000008060206080000000E02000000F30DA
:1047C00020309F70DC371030C0000000100E030056
:1047D0000718101807000000C02020E0C0000000EB
:1047E000000080E01F38E88703C43C040000070F86
:1047F0001810100B070D1010080000808C4C3800AA
:1048000000000000000000000000000000000000A8
:104810000000000000000000000000000000000098
:104820000000000080E0300804000000000000FEEE
:10483000FF0100000000000000000000030F18202E
:10484000400000040830E08000000000000000008C
:10485000000001FFFE0000000000004020180F03D0
:10486000000000000000000000000000C000000088
:104870000000004266663C18FF183C666642000075
:104880000000000003000000000000000000000025
:10489000800000000000001010101010FF10101019
:1048A00010100000000000000300000000000000E5
:1048B00000000000000000000000000000000000F8
:1048C00000000000000000808C4C38000000000058
:1048D00000000000000000000000000000000010C8
:1048E0001010101010101010100000000000000038
:1048F00000000000000000000000000000000000B8
:1049000000000000000000000000000000000000A7
:104910001C1C1C0000000000000000000000000043
:104920000000E0380C000000000080701C03000054
:1049300000000060380E01000000000000000000D0
:1049400080C060202060C080000000FEFF010000E9
:10495000000001FFFE000001070E181010180E07DE
:1049600001000000808080C0E00000000000000026
:10497000000000FFFF000000000000001010101FEA
:104980001F10101000000080402020202060C080F8
:10499000000000030300804020381F070000001CB7
:1049A0001A1918181818181F00000080C02020209D
:1049B00060C080000000000303001010182FE78083
:1049C000000000070F10101010180F070000000063
:1049D00000000000C0E0F000000000C0B088868148
:1049E00080FFFF808000000000000010101F1F10DB
:1049F00010000000E0606060606060600000000027
:104A00003F1008080818F0E0000000070B10101015
:104A1000101C0F030000000080C040202020E0C0D8
:104A2000000000FCFF211008080818F0E000000159
:104A3000070C18101010080F03000000C0E06060A1
:104A4000606060E06000000003000000E018070004
:104A5000000000000000001F1F0000000000008098
:104A6000C0602020202060C080000087EF2C181834
:104A7000303068CF830000070F0810101010180F97
:104A800007000000C0C020202020C0800000001FC0
:104A90003F604040402010FFFE0000000C1C101042
:104AA00010080F03000000000000000000000000DC
:104AB000000000000000000E0E0E000000000000CC
:104AC0000000001C1C1C0000000000000000000092
:104AD00000000000000000000000000C0C000000BE
:104AE0000000000000000058380000000000000036
:104AF00000000000008040201000000010284482C8
:104B00000100000000000000000000000102040895
:104B10001000000000000000000000000000008401
:104B200084848484848484848400000000000000E1
:104B30000000000000000000102040800000000085
:104B40000000000000000000018244281000000066
:104B50001008040201000000000000C02020101016
:104B6000101030E0C0000003030000F010080C0734
:104B70000300000000001C1C1C00000000000000DE
:104B800000C0406020202040C00000FCFF01F00E6B
:104B900003C1FE03807F0001070E081111101109E7
:104BA00004020000000080E0E000000000000000BF
:104BB000807C4340477FF880000010181F100000E1
:104BC0000000131F1C1020E0E02020202060C08087
:104BD000000000FFFF10101010182FE78000101FBA
:104BE0001F1010101010180F0700000080C0402088
:104BF00020202060E00000FCFF0100000000000019
:104C000001000001070E181010100804030020E036
:104C1000E02020202040C080000000FFFF000000B6
:104C2000000001FFFE00101F1F10101018080E07D3
:104C3000010020E0E020202020202060800000FFF4
:104C4000FF101010107C00000000101F1F1010102B
:104C500010101018060020E0E020202020206060C6
:104C6000800000FFFF101010107C00000100101FDA
:104C70001F100000000000000000000080C0602045
:104C8000202040E0000000FCFF0100004040C0C1C7
:104C900040400001070E181010100F0F000020E018
:104CA000E0200000000020E0E02000FFFF101010D6
:104CB000101010FFFF00101F1F1000000000101F39
:104CC0001F100000202020E0E02020200000000035
:104CD000000000FFFF000000000000001010101F87
:104CE0001F101010000000000000202020E0E02035
:104CF000202000000000000000FFFF000000006016
:104D0000E0808080C07F3F00000020E0E0200000C5
:104D100020A06020200000FFFF30187CE3C00000CE
:104D20000000101F1F10000001131F1C181020E0AE
:104D3000E020000000000000000000FFFF00000075
:104D4000000000000000101F1F101010101010189D
:104D5000060020E0E0E000000000E0E0E02000FFCE
:104D6000013FFEC0E01E01FFFF00101F1000031FE7
:104D70000300101F1F1020E0E0C000000000002012
:104D8000E02000FF0003071C78E08000FF00101FF8
:104D9000100000000000030F1F00000080C0602012
:104DA0002060C080000000FEFF010000000000FF46
:104DB000FE000001070E181010180C07010020E07B
:104DC000E0202020202060C0800000FFFF20202065
:104DD0002020301F0F00101F1F10000000000000D7
:104DE0000000000080C060202060C080000000FE45
:104DF000FF010000000000FFFE000001070E11117E
:104E0000133C7C67210020E0E0202020202060C0AF
:104E1000800000FFFF101030F0D0080F0700101FB7
:104E20001F10000000030F1C10100080C060202025
:104E300020204040E00000070F0C1818303060E0E0
:104E40008100001F0C0810101010180F0700806060
:104E5000202020E0E020202060800100000000FFF2
:104E6000FF000000000100000000101F1F100000E4
:104E7000000020E0E020000000000020E02000FF13
:104E8000FF00000000000000FF0000070F181010D6
:104E90001010100807002060E0E02000000020E073
:104EA00060200000077FF88000807C030000000085
:104EB0000000071F1C070000000020E0E02000E0C9
:104EC000E0200020E0200007FFF8E01FFFFCE01FCB
:104ED00000000000031F0300011F0300000000206A
:104EE00060E0A0000020E0602000000000038F7C54
:104EF000F8C6010000000010181E130001171F184B
:104F000010002060E0E02000000020E060200000B1
:104F100001073EF8E0180700000000000010101F15
:104F20001F101000000000806020202020A0E0E082
:104F3000200000000000C0F03E0F03000000001041
:104F40001C1F17101010101806000000000000FCB5
:104F50000404040404000000000000FF000000003E
:104F6000000000000000007F404040404000000082
:104F700010E0000000000000000000000000031C22
:104F800060800000000000000000000000030C70C2
:104F9000800000000404040404FC00000000000081
:104FA0000000000000FF0000000000004040404002
:104FB000407F0000000000000010080C040C0810E6
:104FC00000000000000000000000000000000000E1
:104FD00000000000000000000000000000000000D1
:104FE00000000000000000000000000000000000C1
:104FF00000008080808080808080808080800000B1
:105000000004040808000000000000000000000088
:105010000000000000000000000000000000000090
:105020000000000000000000000000000000000080
:1050300098D844642424FCF80000000F1F181010B6
:1050400010081F1F10180020E0F0000000000000F2
:1050500000000000FFFF180804040CF8F000000036
:105060001F0F18101010180F0300000000000000A0
:1050700000000000000000E0F8180404043C3800C0
:10508000000000030F0C10101010080600000000B4
:10509000000000000020E0F0000000E0F81C040424
:1050A0000408FFFF000000030F18101010081F0F66
:1050B00008000000000000000000000000000000E8
:1050C000E0F8484444444C7870000000030F0C188A
:1050D0001010100804000000000080C0602020E0D4
:1050E000C00000040404FFFF0404040400000000E6
:1050F00010101F1F10101000000000000000000022
:10510000000000000000000070F88C04048CF874AB
:10511000040C007076CF8D8D8D89C87870000020CA
:10512000E0F000000000000000000000FFFF0804A5
:105130000404FCF8000000101F1F100000101F1FC7
:10514000100000000000006060000000000000008F
:10515000040404FCFC000000000000001010101FFC
:105160001F10101000000000000000000060600030
:10517000000000000000040404FCFC00000000002B
:10518000C0C08080C07F3F0000000020E0F0000031
:105190000000000000000000FFFF80C0F41C0404B9
:1051A000000000101F1F1100031F1C101000000042
:1051B000202020E0F000000000000000000000FFC0
:1051C000FF000000000000001010101F1F10101042
:1051D000000000000000000000000000000004FCCF
:1051E000FC0804FCFC0804FCFC00101F1F10001F3E
:1051F0001F10001F1F100000000000000000000032
:1052000000000004FCFC08080404FCF80000001086
:105210001F1F100000101F1F1000000000000000E2
:1052200000000000000000E0F0180C04040C18F06E
:10523000E00000030F0C101010100C0F0300000012
:10524000000000000000000000000004FCFC080456
:1052500004040CF8F0000080FFFF889010101C0F71
:10526000030000000000000000000000000000E05B
:10527000F81C04040408F8FC000000030F181010C8
:105280009088FFFF80000000000000000000000088
:105290000000040404FCFC100804040C0C001010B2
:1052A000101F1F1010100000000000000000000080
:1052B00000000000000000003078CCC48484840C1E
:1052C0001C0000001E1810101011190F060000001D
:1052D000000000C000000000000000040404FFFF04
:1052E000040404000000000000000F1F1010100C48
:1052F00000000000000000000000000000000004AA
:10530000FCFE00000004FCFE000000000F1F18104F
:1053100010081F0F0800000000000000000000003F
:10532000000000040C3CFCC40000C43C0C04000061
:105330000000010F1E0E0100000000000000000030
:10534000000000000000043CFCC400E47CFC8480FD
:105350007C040000071F070000071F070000000073
:10536000000000000000000000000004041C7CE4B9
:10537000C0341C0404000010101C1601131F1C185C
:105380001000000000000000000000000000000409
:105390000C3CFCC400C43C0404000000C080C137C5
:1053A0000E010000000000000000000000000000EE
:1053B000000000001C0404C4F47C1C040000000075
:1053C000101C1F17111010180E0000000000000024
:1053D00000F80C04000000000000001028EF00009E
:1053E0000000000000000000003F604000000000DE
:1053F00000000000FF0000000000000000000000AE
:10540000FF0000000000000000000000FF0000009E
:1054100000000000040CF800000000000000000084
:105420000000EF28100000000000000040603F0076
:1054300000000000000000180602020408102020EE
:105440003008000000000000000000000000000024
:10545000000000000000000000000000F01010102C
:1054600010FF10101010F000000000000F040404E2
:1054700004FF040404040F0000004040405F555541
:1054800055755555555F404040000040200F094973
:1054900089790909090F2040000000FE02424ACA2A
:1054A0004A4ACA4A4A4202FE000000FF40504C43AA
:1054B00040404F50505C40FF00000000F888888852
:1054C00088FF88888888F800000000001F08080806
:1054D000087F888888889F80F0008082828282820C
:1054E00082E2A2928A868280800000000000004052
:1054F000807F0000000000000000101010FF1090DE
:1055000008888888FF88888808000444827F018092
:105510008040432C1028468180000010101010D0CD
:1055200030FF30D0121C10100000100804020100DF
:1055300000FF000001020408100004040484E43C9D
:105540002724242424E40404040004020100FF09A5
:1055500009090949897F0000000000FE225A8600DF
:10556000FE9292929292FE00000000FF0408070053
:10557000FF4020030C142241400000804020180608
:1055800080000718204080000000010020702826BD
:105590002120202438600001010000101292929214
:1055A000929292121202FE0000000000003F1010C2
:1055B00010103F0040807F000000000000C080808D
:1055C0008080808080FC84808080808080C0C0005B
:1055D0000000000000FF7F404040404040FF40404E
:1055E0004040404040FF7F000000000000000000FD
:1055F00000000000007F70000000000000000000BC
:10560000000000000000000000000000000000009A
:1056100000FCF80000000000000000000000000096
:10562000000000000000FFFE02020202020202026D
:1056300002FFFF020202020202020202FF03000056
:105640000000000000001F1F0404040404040404FC
:1056500004FFFF0404040404040404041F00000005
:10566000000000000000000000000000000000003A
:10567000007F3F000000000000000000000000006C
:10568000000000000000000000000000000000001A
:10569000000000000000000000000000000000F812
:1056A000F8F0F07020000000000000000000000092
:1056B00000000000000000000000000000000000EA
:1056C000000000000000000000008000000000005A
:1056D000000000000000000000000000000000FFCB
:1056E000FFFFFF00000000000000000000000000BD
:1056F00000000000000080800000000000000000AA
:105700000000000000000000000000FFFFFE060691
:10571000060606060606060606060606060606FF30
:10572000FFFFFF060606060606060606060606062E
:105730000606060606FFFFFFFF0702000000000046
:105740000000000000000000000000FFFFFF00005C
:10575000000000000000000000000000000000FF4A
:10576000FFFFFF000000000000000000000000003C
:105770000000000000FFFFFFFF000000000000002D
:105780000000000000000000000000FFFFFF1818EC
:10579000181818181818181818181818181818FFA2
:1057A000FFFFFF18181818181818181818181818C4
:1057B0001818181818FFFFFFFF0000000000000075
:1057C00000000000000000000000020101000000D5
:1057D000000000000000000000000000000000FFCA
:1057E000FFFFFF00000000000000000000000000BC
:1057F00000000000000101000000000000000000A7
:105800000000000000000000000000000000000098
:10581000000000000000000000000000000000FF89
:10582000FFFFFF000000000000000000000000007B
:105830000000000000000000000000000000000068
:105840000000000000000000000000000000000058
:105850000000000000000000000000000000001F29
:105860001F0F0F00000000000000000000000000FB
:105870000000000000000000000000000000000028
:1058800000000000A458000800000020580000009C
:1058900034280008FC58000858000020A00B000025
:1058A0004428000801000000100000000000000073
:1058B00000127A0000000000FFFFFFFF0000FD0063
:1058C000060101C7EBBDF8FD00060101B4EDCEF302
:1058D000FD00180101BDE2CBF8CAA7B0DCA3ACC73C
:1058E000EBC1AACFB5B9DCC0EDD4B10808080808EF
:0C58F000080000000000000000000000A4
:04000005080000ED02
:00000001FF
