:020000040800F2
:10000000F806002001010008331900081114000847
:10001000311900080F0200081D1C00080000000034
:100020000000000000000000000000003719000878
:1000300011020008000000003519000839190008F5
:100040001B0100081B0100081B0100081B01000820
:100050001B0100081B0100081B0100081B01000810
:100060001B0100081B0100081B0100081B01000800
:100070001B0100081B0100081B0100081B010008F0
:100080001B0100081B0100081B0100081B010008E0
:100090001B0100081B0100081B0100081B010008D0
:1000A0001B0100081B0100081B0100081B010008C0
:1000B0001B0100081B0100081B0100081B010008B0
:1000C0001B0100081B0100081B0100081B010008A0
:1000D0001B0100081B010008E91B00081B010008A8
:1000E0001B0100081B0100081B010008DFF80CD0F1
:1000F00000F06CF800480047851F0008F806002053
:100100000648804706480047FEE7FEE7FEE7FEE7B1
:10011000FEE7FEE7FEE7FEE7FEE7FEE79B190008C5
:10012000ED000008202A04DB203A21FA02F0002129
:10013000704721FA02F3D040C2F1200291400843F7
:1001400019467047D2B201E000F8012B491EFBD2DC
:1001500070470022F6E710B513460A4604461946D2
:10016000FFF7F0FF204610BD2DE9F05F05460020A7
:1001700092469B4688460646814640241BE0284618
:10018000414647462246FFF7CDFF53465A46C01A1E
:10019000914110D311461846224600F029F82D1A35
:1001A00067EB01084F4622460120002100F020F8AD
:1001B00017EB00094E41201EA4F10104DFDC484684
:1001C00031462A464346BDE8F09F0000064C074DE5
:1001D00006E0E06840F0010394E807009847103417
:1001E000AC42F6D3FFF786FFD4200008F4200008C5
:1001F000202A04DB203A00FA02F1002070479140E7
:10020000C2F1200320FA03F3194390407047FEE740
:10021000704772B6FEE710B590F82110002202294F
:1002200005D00421816380F82020012010BD0168E1
:100230000B6823F00E030B6001680B6823F00103C9
:100240000B6090F84030C46B012101FA03F3636046
:1002500080F8211080F82020104610BD10B590F8CD
:1002600021100024022903D00421816301243DE0F0
:1002700001680A6822F00E020A6001680A6822F02A
:1002800001020A601A4A0168914201D1012121E06C
:10029000174A1432914201D110211BE0144A28322E
:1002A000914201D1891515E0114A3C32914201D1A8
:1002B00089140FE00E4A5032914202D14FF480313E
:1002C00008E00B4A6432914202D14FF4801101E000
:1002D0004FF08071064A083A5160012180F82110E0
:1002E000002180F82010416B01B18847204610BDE5
:1002F0000800024070B5044600F008F90546601C8D
:1003000002D004480078044400F000F9401BA042E9
:10031000FAD370BD000000202DE9F84FDFF8B89146
:100320000024A9F1040B23460F2709F1040AABF1BD
:10033000040EC9E00125A5402A40AA427DD1674E9E
:10034000D1F804C0ACEB0608B44532D014DCBCF1E3
:10035000030F3AD009DCBCF1000F2AD0BCF1010F29
:100360001CD0BCF1020F31D11DE0BCF1110F17D030
:10037000BCF1120F2AD119E0B8F5881F19D006DC9C
:10038000B8F5803F15D0B8F5801F1FD111E0B8F542
:10039000001F0ED0B8F5041F18D10AE0CB6815E095
:1003A000CB681B1D12E0CB6808330FE0CB680C3321
:1003B0000CE08B682BB1012B4FF0080303D0456193
:1003C00004E0042302E0056100E00023FF2A01D8D5
:1003D000064601E000F104064FEA840501D9A5F1C3
:1003E0002005D6F8008007FA05FC28EA0C0803FA75
:1003F00005F548EA0508C6F800804D68ED0062D5AD
:10040000374DAE6946F00106AE61AD6924F00306D2
:1004100005F001050095334D06EB050CDCF808509E
:10042000A607360F07FA06F825EA0805DFF8B880B0
:10043000404503D14FF0000817E044E0DFF8AC80FE
:10044000404502D14FF001080FE0DFF8A48040459D
:1004500002D14FF0020808E0DFF89880404502D151
:100460004FF0030801E04FF0040808FA06F848EAE4
:100470000508CCF808804D68D9F80060ED024D46BB
:1004800001D5164300E096432E604D68DAF800600F
:10049000AD02554601D5164300E096432E604D68E7
:1004A000DBF80060AD035D4601D5164300E09643DE
:1004B0002E604D68DEF80060ED03754601D51643E9
:1004C00000E096432E60641C0D682A46E5407FF4E8
:1004D00031AFBDE8F88F00000804014000001110A2
:1004E000001002400000014000080140000C0140E3
:1004F00000100140001401408068084000D0012035
:1005000070470AB1016170470904FBE70148806840
:10051000704700000000002070B5040025D094F85A
:100520003D00002520B984F83C50204600F0E6F953
:10053000242084F83D002068016821F00101016059
:100540002068016841F4004101602068016821F4DD
:100550000041016000F02EFB4D4A6168914201D8D4
:100560004C4900E04C49884201D2012070BD4B4902
:100570002368B0FBF1F15E6826F03F060E435E6033
:100580006368934206D94FF4967359434FF47A73D4
:10059000B1FBF3F12368491C1E6A26F03F06314384
:1005A00019626168914210D84900401EB0FBF1F217
:1005B000521CC2F30B02042A01D2042022E0B0FB39
:1005C000F1F0401CC0F30B001CE0A268F2B301EB99
:1005D000C10303EB0116431EB3FBF6F35B1C43F4AC
:1005E00080431B0549D092B301EBC10202EB01111C
:1005F000401EB0FBF1F0401CC0F30B0040F4804003
:1006000040F400402168CA694CF6FF739A431043D6
:10061000C861D4E9071001432068026822F0C002D3
:1006200011430160D4E9030101432068826848F264
:10063000FF339A4311438160D4E9050108432168DF
:10064000CA6822F0FF021043C86001E00EE016E025
:100650002068016841F0010101602564202084F8D0
:100660003D00256384F83E50002070BD01EB41063B
:10067000431EB3FBF6F35B1CB3E70120C2E701EBBB
:100680004101401EB0FBF1F0401CC0F30B00B7E786
:10069000A086010080841E0000093D0040420F003A
:1006A0002DE9FF4F83B00025DDE910799A46934686
:1006B0000446DDF848800095FFF728FF064694F8C9
:1006C0003D0020287CD1192301228849204600962C
:1006D00000F034FF0028F5D194F83C0001286FD0D9
:1006E000012084F83C0020680168C90703D1016833
:1006F00041F0010101602068016821F4006101609E
:10070000222084F83D00402084F83E002564676282
:10071000A4F82A90608D20857548E062CDE90086B6
:1007200053465A462046049900F08AFE00287CD1A0
:10073000208DDFF8C091202768B1012814D002284D
:10074000206801681ED041F4806101602068416921
:1007500080690090BCE0206841698169009101686E
:1007600041F400710160B3E02068016821F4806108
:10077000016072B62068416981690091016841F4A5
:1007800000710AE041F40061016072B620684169BD
:1007900081690091016821F48061016062B697E08F
:1007A000032865D801280CD0022843464FF00002E8
:1007B0004946204600960BD000F0C0FEA8BB0CE0D6
:1007C00091E032464146204600F05EFF68BB72E091
:1007D00000F0B4FE48BB72B633E02068016821F433
:1007E0008061016072B620680069616A0870606AA1
:1007F000401C6062208D401E2085608D401E6085FB
:100800003D4846F2A8110068B0FBF1F0C0EBC00013
:1008100000EB80000090401E009007D020684069E7
:10082000C04340070DD50098F5E727E044F8305F56
:100830006773A573206940F02000206162B62573BC
:100840001CE02068016841F40071016020680069C3
:10085000616A0870606A401C6062218D491E2185B2
:10086000618D491E618562B621680969017026E0C3
:1008700032464146204600F007FF18B1012007B07C
:10088000BDE8F08F20680069616A0870606A401CEA
:100890006062208D401E81B22185608D401E608582
:1008A00020684269D243520712D4032903D1016858
:1008B00021F48061016020680069616A0870606AE3
:1008C000401C6062208D401E2085608D401E60852A
:1008D000208D00287FF464AF84F83D7084F83E508A
:1008E00084F83C50CBE70220C9E70000020010006A
:1008F0000000FFFF040001000C00002010B586B0CE
:100900000021009101910291039100680F498842F2
:100910001AD10F4CA06940F00800A061A069694697
:1009200000F008000490C0200090122001900320E5
:1009300003900848FFF7F0FCE06940F40010E06124
:10094000E06900F40010049006B010BD00540040AF
:1009500000100240000C01400248816802781144F6
:100960008160704700000020074810B5016841F021
:1009700010010160032000F075F80F2000F006F868
:1009800000F024F8002010BD0020024070B50D4D8D
:1009900004464FF47A712878B1FBF0F00A490968EF
:1009A000B1FBF0F000F0DCFA48B9102C07D20022BD
:1009B0002146501E00F036F800206C6070BD01200A
:1009C00070BD0000000000200C0000200C4808B59D
:1009D000816941F001018161816901F001010091AA
:1009E000C16941F08051C161C06900F08050009040
:1009F0000448416821F0E06141F00071416008BDA8
:100A00000010024000000140002809DB00F01F0236
:100A1000012191404009800000F1E020C0F8001160
:100A200070470000F0B40E4B1B680C46C3F3022362
:100A3000C3F10705042D00D90425191D072901D28A
:100A4000002300E0DB1E012606FA05F1491E2140C5
:100A500099409E40761E16403143F0BC01F0F0B83C
:100A60000CED00E0064900F0070208684FF6FF03AE
:100A7000184040EA0220034A104308607047000013
:100A80000CED00E00000FA052DE9F0470F460500E7
:100A900061D0434E306800F00700B84209D2306898
:100AA00020F0070038433060306800F00700B8429B
:100AB00051D128683B4C810712D5400703D56068A7
:100AC00040F4E06060602878000703D5606840F477
:100AD000605060606068A96820F0F00008436060C2
:100AE0002878C00728D06868012810D0216802281B
:100AF00010D0890700292EDA616821F00301014333
:100B00006160FFF703FD804641F288390DE02168FE
:100B10008903EFE78901EDE7FFF7F8FCA0EB080197
:100B2000494502D90320BDE8F0876068696800F094
:100B30000C00B0EB810FEFD1306800F00700B84235
:100B40000BD9306820F0070038433060306800F07F
:100B50000700B84201D00120E5E72878400705D515
:100B60006068E96820F4E060084360602878000766
:100B700006D56068296920F4605040EAC1006060D1
:100B800000F038F86168084AC1F30311515CC840AD
:100B90000649086006480068FFF7F8FE0020C2E733
:100BA0000020024000100240BA2000080C00002083
:100BB000040000200448054900684968044AC1F35C
:100BC0000221515CC84070470C0000200010024018
:100BD000CA2000080448054900684968044AC1F36E
:100BE000C221515CC84070470C0000200010024038
:100BF000CA2000080E4A51680E4801F00C03042B6D
:100C000011D0082B0FD10C48C1F38343C903C05C3A
:100C10000AD55168084AC1F34041921E515C054A09
:100C20005043B0FBF1F0704704494843704700005F
:100C30000010024000127A00AA20000800093D00BE
:100C40002DE9F84F040070D02078C04DC00749D07E
:100C50006868C0F38100012807D06868C0F381008C
:100C6000022809D16868C00306D52868800339D5F1
:100C700060680028E7D035E06068B0F5803F0BD0B1
:100C800010B1B0F5A02F11D0286820F48030286072
:100C9000286820F4802002E0286840F48030286032
:100CA000606890B1FFF732FC06460AE0286840F41D
:100CB00080202860F0E700BFFFF728FC801B642835
:100CC00073D828688003F7D50CE0FFF71FFC0646B1
:100CD00005E000BFFFF71AFC801B6428F0D82868E5
:100CE0008003F7D420789A4E80074FF001094FF027
:100CF000000839D5686810F00C0F07D06868C0F399
:100D00008100022809D16868C00306D428688007DA
:100D100014D52069012808D110E02069B0B1C6F8C7
:100D20000090FFF7F3FB074605E00AE1FFF7EEFB53
:100D3000C01B0228C4D828688007F7D528686169D5
:100D400020F0F80040EAC10028600DE0C6F80080FD
:100D5000FFF7DCFB074604E0FFF7D8FBC01B0228C7
:100D600023D828688007F7D4207800072CD5794845
:100D7000A169D9B1C0F80090FFF7C8FB074604E0AD
:100D8000FFF7C4FBC01B02280FD8686A8007F7D59D
:100D900071484FF4FA510068B0FBF1F0009000BFC9
:100DA0000098411E0091FAD20EE080E0C0F8008069
:100DB000FFF7ACFB074604E0FFF7A8FBC01B0228C7
:100DC00075D8686A8007F7D42078400760D5E8694D
:100DD0000027C00008D4E86940F08050E861E86965
:100DE000012700F0805000905C480168C90513D4C9
:100DF0000168834641F480710160FFF787FB8246FA
:100E000006E000BFFFF782FBA0EB0A0064284ED883
:100E1000DBF80000C005F5D5E06801280AD008B16C
:100E2000052813D0286A20F001002862286A20F0E3
:100E3000040002E0286A40F001002862E06841F204
:100E4000883B98B1FFF762FB82460BE0286A40F0CE
:100E500004002862EEE700BFFFF758FBA0EB0A0191
:100E600059455AD8286A8007F6D50CE0FFF74EFBA3
:100E7000824605E0FFF74AFBA0EB0A0159454CD832
:100E8000286A8007F6D41FB1E86920F08050E86135
:100E9000E06988B36968C1F38101022944D002285E
:100EA000C6F8608004D0FFF731FB044638E034E038
:100EB000FFF72CFB074604E0FFF728FBC01B0228C6
:100EC0002BD828688001F7D4206AB0F5803F05D17F
:100ED0006868A16820F4003008436860D4E908011C
:100EE0000843696821F4741108436860C6F860908B
:100EF000FFF70CFB044606E025E000BFFFF706FB0A
:100F0000001B022809D828688001F7D51BE000BF24
:100F1000FFF7FCFA001B022802D90320BDE8F88F76
:100F200028688001F4D40EE00128F7D06868226AAE
:100F300000F48031914204D1616A00F4701088425B
:100F400001D00120EAE70020E8E70000001002409D
:100F500000004242800442420C0000200070004029
:100F600010B5401EB0F1807F01D3012010BD4FF0BD
:100F7000E02460610F21601700F062FE0020A06194
:100F800007202061002010BD70477047F8B5016848
:100F900004460868CA684B6910F00F0F4FF000054F
:100FA00059D003F0010602F49077374365D0C107AA
:100FB00005D0D10503D5616C41F0010161644107A1
:100FC00005D5D90703D0616C41F002016164810746
:100FD00005D5D90703D0616C41F0040161640107B4
:100FE00007D502F02001314303D0616C41F00801C4
:100FF0006164616C00293AD0800604D5900602D560
:10100000204600F0FAFC20684069616CC0F3801053
:10101000090700D460B3204600F0C8FC206840698E
:10102000400621D52068143050E8001F21F040010F
:1010300040E80012002AF5D1E06BA8B16D49416388
:10104000E06BFFF70BF9002811D0E06B416B01B0AA
:10105000BDE8F040084783060FD593060DD520461E
:10106000BDE8F84000F0C9BC2046FFF78EFFF8BD90
:101070002046FFF78AFF6564F8BD266B2023012E0A
:101080007CD1C6067AD5D60678D50868486800901F
:1010900048694FF00206400640D5E16B0868406899
:1010A0000004000CE8D0A28D8242E5D9E085886971
:1010B00020282DD020680C3050E8001F21F48071CA
:1010C00040E80012002AF5D12068143050E8001FD3
:1010D00021F0010140E80012002AF5D12068143007
:1010E00050E8001F21F0400140E80012002AF5D12D
:1010F00084F84230256320680C3050E8001F21F04E
:10110000100140E80012002AF5D1E06BFFF783F8E8
:101110006663A08DE18D401A81B22AE0A08DE18D39
:10112000401A81B2E08D0028A6D00029A4D0226800
:101130000C3252E8000F20F4907042E80007002FB4
:10114000F5D12068143050E8002F22F0010240E869
:101150000027002FF5D184F84230256320680C3039
:1011600050E8002F22F0100240E80023002BF5D1B8
:1011700066632046FFF708FFF8BDFFE705062BD59D
:10118000150629D594F841002128F5D1A068B0F5BD
:10119000805F01D12069B0B1206A411C21622168C1
:1011A00000784860E08C401E0004000CE084E3D12D
:1011B0002068C16821F08001C1602068C16841F0E9
:1011C0004001C160D8E7206A0088C0F30800486089
:1011D000206A801C2062E5E74006CDD55006CBD5BD
:1011E000CA68204622F04002CA6084F8413000F00C
:1011F0000EF9C1E79D19000870B5040004D094F8F9
:101200004100002510B106E0012070BD84F8405077
:10121000204600F023F8242084F841002068C168AB
:1012200021F40051C160204600F048FC20680169AB
:1012300021F4904101612068416921F02A01416156
:101240002068C16841F40051C1606564202084F8C1
:10125000410084F842006563002070BDF0B585B0A0
:10126000002400940194029403940368394F0220EF
:1012700039490322394D4602BB421AD18B6943F4E6
:1012800080438B618B6903F4804304938B6943F043
:1012900004038B618969039201F004010491010246
:1012A000CDE9001069462846FFF736F8CDE900641D
:1012B0004AE02B4FBB4229D1CB6943F40033CB61C9
:1012C000CB6903F4003304938B6943F004038B610F
:1012D0008969039201F0040104910421CDE9001011
:1012E00069462846FFF718F80820CDE9000469464A
:1012F00028460294FFF710F8002211462620FFF737
:1013000091FB2620FFF780FB05B0F0BD154DAB42E9
:10131000FAD1CB6943F48023CB61CB6903F48023FA
:1013200004938B6943F008038B6189690E4D01F0CA
:101330000801CDE90321CDE9006069462846FEF7A2
:10134000EBFFE814CDE90004694628460294FEF755
:10135000E3FFD9E7003801400010024000080140D7
:101360000044004000480040000C014070472DE957
:10137000F843044690F84100984616460D4620284A
:1013800002D00220BDE8F88385B17EB10020606400
:10139000212084F84100FFF7B9F8A6848146E6844D
:1013A000A0682027B0F5805F02D003E00120E9E7C4
:1013B000206910B12E4600250EE000260CE08021A9
:1013C000204600F0D7FBA8B9C6B116F8010B21687A
:1013D0004860E08C401EE084E08C4B464FF00002F9
:1013E000CDF800800028EAD14FF04001204600F0FF
:1013F000C1FB40B184F841700320C3E735F8020B0C
:10140000C0F30800E3E784F841700020BAE77047B2
:10141000FEE701684A69D24352050FD46FF4806237
:101420004A61002140F8301F202242738173026913
:1014300042F00402026101730120704700207047EE
:101440002DE9F84F0446006889460B9D01689846CF
:10145000174641F4806101602068016841F48071A1
:10146000016000954FF0011B0022594620460A9B5F
:1014700000F064F84FF4007A40B120680068C005BD
:1014800001D5C4F840A00320BDE8F88F216809F019
:10149000FE0008612B46284920460A9A00F096F87B
:1014A000F0BB20684169806900902A4620460A996D
:1014B00000F022F940B1206C04283AD1206801687C
:1014C00041F40071016034E0FEB2B8F1010F09D0BF
:1014D0002168380A08612A4620460A9900F00CF96A
:1014E0000028E8D1206806612A4620460A9900F0C3
:1014F00003F90028DFD12068016841F480710160A0
:1015000000950022594620460A9B00F017F8002853
:10151000B3D1216809F0FF0040F00100086100E04C
:1015200007E02B46044920460A9A00F04FF80028AD
:10153000AAD00120A8E70000020001002DE9F04731
:10154000984617460D460446C1F30746DDF820903D
:101550002AE000BFB8F1FF3F26D0FEF7D7FFA0EB8F
:101560000901414502D8B8F1000F1DD12068012EB4
:1015700016D0806925EA00000004000C12D000207B
:10158000B84211D1002044F8300F20216173A073BC
:10159000216941F02001216120730120BDE8F0871D
:1015A0004069E7E70120EBE72068012E0AD0806957
:1015B00025EA00000004000C06D00020B842C9D083
:1015C0000020EBE74069F3E70120F7E72DE9F0475A
:1015D000984616460D4604464FF000094FF0200A83
:1015E000C1F3074723E020684069C043400515D494
:1015F0002068016841F40071016021686FF4806027
:101600004861C4F8309084F83DA084F83E90216C85
:1016100041F00401216484F83C9021E0701C06D064
:10162000FEF774FFA0EB0800B04203D816B1012FFB
:101630001FD021E02068012F15D0806925EA000025
:101640000004000C18D000BF44F8309F84F80DA0AF
:1016500084F80E90216941F02001216184F80C90FA
:101660000120BDE8F087406925EA00000004000C75
:10167000EAD12068406901E02068806925EA00001D
:101680000004000CAFD1ECE72DE9F04100259046B5
:101690000E460446202728E04069C043C0060CD40B
:1016A00054F8301B6FF01000486144F81059677708
:1016B000A577206A2062257714E0FEF727FFA0EBCC
:1016C0000800B04200D886B920684069C04340068F
:1016D0000BD544F8305F6773A573206940F0200094
:1016E000206125730120BDE8F08120684169C9436C
:1016F0004906D1D40020F6E770B516460D460446DB
:101700001EE02046FFF785FE08B1012070BD681C71
:1017100016D0FEF7FBFE801BA84200D885B92068D2
:101720004069C04300060BD5002044F8300F20214B
:101730006173A073216941F0200121612073E4E706
:1017400020684069C0430006DBD4002070BD000063
:101750002DE9F04385B000263748009601960296A1
:101760000396816941F010018161816901F01001E6
:101770000491816941F020018161816901F02001BA
:101780000491816941F004018161816901F00401E2
:101790000491816941F0080181618069274F00F05F
:1017A00008004FF460440490012221463846FEF7B9
:1017B000A8FEDFF88C80012248F203114046FEF7B4
:1017C000A0FEDFF88090012238214846FEF799FEFE
:1017D000009401240325694638460194CDE9024569
:1017E000FEF79AFD48F20300CDE900046946404641
:1017F000CDE90245FEF790FD4FF47040CDE90006BB
:10180000694602944846FEF787FD2002CDE90004B0
:101810000220CDE9020569464046FEF77DFD3820ED
:10182000CDE9000469464846CDE90245FEF774FD5E
:1018300005B0BDE8F0830000001002400010014038
:1018400000080140000C01400D4810B50B49016033
:101850000C49416000214FF480428160C0E90312CD
:1018600041618161C1610162FEF756FE002803D02B
:10187000BDE81040FEF7CDBC10BD00000054004094
:1018800028000020A08601000C4810B50A4901601C
:101890004FF4E1314160002181600C22C160C0E958
:1018A00004128161C161FFF7A7FC002803D0BDE8E5
:1018B0001040FEF7AEBC10BD003801407C00002097
:1018C0000C4810B50A4901604FF4614141600021A4
:1018D00081600C22C160C0E904128161C161FFF71F
:1018E0008BFC002803D0BDE81040FEF792BC10BD71
:1018F00000440040C40000200C4810B50A490160B3
:101900004FF4E1314160002181600C22C160C0E9E7
:1019100004128161C161FFF76FFC002803D0BDE8AC
:101920001040FEF776BC10BD004800400C010020BE
:10193000FEE7FEE770477047FFF70EB830B58FB08F
:1019400028216846FEF705FC14210AA8FEF701FCD1
:1019500001210804CDE9001000240294022504911D
:10196000CDE907504FF4E01009906846FFF768F999
:1019700008B172B6FEE70F20CDE90A054FF480608A
:10198000CDE90C4002210AA80E94FFF77DF800284B
:1019900001D072B6FEE70FB030BD704710B5406A97
:1019A0000021C185C184FFF7F0FA10BD01680C3138
:1019B00051E8002F22F4907241E80023002BF5D16A
:1019C0000168143151E8002F22F0010241E80023A0
:1019D000002BF5D1016B012909D101680C3151E8C7
:1019E000002F22F0100241E80023002BF5D1202126
:1019F00080F8421000210163704708B590F842104A
:101A0000222901D0022008BD82684FF480539A42F7
:101A100001D1016921B1816A9A421BD04AB10AE021
:101A20000268816A5268C2F308020A80816A891CCE
:101A300008E0026972B10268526802F07F020A701F
:101A4000816A491C8162C18D491E0904090CC18546
:101A500003D01BE002685268F1E70168CA6822F00F
:101A60002002CA600168CA6822F48072CA600168F4
:101A70004A6922F001024A61202180F842100021C7
:101A80004163026B012A03D0FFF770FC002008BD00
:101A9000016301680C3151E8002F22F0100241E887
:101AA0000023002BF5D101680A68D20602D50A6826
:101AB00049680091818DFFF767FAE7E770B5044642
:101AC00000680169E26821F4405111430161216914
:101AD000A0680843616908432168CA6841F20C6341
:101AE0009A430243CA6020684169A26921F44071A7
:101AF000114341611E492068884202D1FFF76AF80C
:101B000001E0FFF757F800EBC00101EB001260683D
:101B100064218000B2FBF0F3B3FBF1F36FF0180621
:101B20007343B2FBF0F5B2FBF0F605EB830532230D
:101B300003EB0515B5FBF1F5B6FBF1F605F0F00585
:101B400005EB0615B2FBF0F6B2FBF0F0B0FBF1F0DE
:101B50006FF01802504306EB800003EB0010B0FB5F
:101B6000F1F0216800F00F002844886070BD00008B
:101B7000003801402DE9F843984617460D460446C3
:101B8000089E24E0701C22D0FEF7C0FCA0EB0800E9
:101B9000B0421AD8CEB12068C168490717D5802D48
:101BA00015D0402D13D00168C94309070FD401682F
:101BB0000025406800902046FFF7F8FE082060648A
:101BC00084F840500120BDE8F8830320FBE720683B
:101BD000006835EA000004D00020B842D2D00020CE
:101BE000F1E70120F9E7000010B50948FFF7CEF949
:101BF000074801680968C943C90607D44FF4C8718A
:101C0000C1850449816204490120087010BD0000AB
:101C1000C40000205401002010000020FEE7000056
:101C20000FB4054B10B503A9044A029800F028F838
:101C300010BC5DF814FB00006D1F0008240000209C
:101C40000907090E002804DB00F1E02080F80014E9
:101C5000704700F00F0000F1E02080F8141D70477D
:101C600002E008C8121F08C1002AFAD17047704765
:101C7000002001E001C1121F002AFBD170470000C3
:101C80002DE9FF4F8DB09B460F460446002606E027
:101C900025280BD05A460F999047641C761C207853
:101CA0000028F5D111B03046BDE8F08F0025A846D8
:101CB0000122984900E0054314F8013F203B02FA55
:101CC00003F00842F7D120782E2817D114F8010F1D
:101CD00045F004052A280ED06FF02F022078A0F1DD
:101CE000300109290AD808EB880102EB410100EB19
:101CF0000108641CF2E757F8048B641C20786C28F8
:101D00000DD004DC4C2812D06A2811D104E07428CC
:101D10000DD07A280CD10AE045F4001507E061786F
:101D200045F48015814202D1641C05F58015641CC0
:101D30002278692A45D008DC002AB3D0582A69D015
:101D4000632A10D0642A08D13BE0702A67D0732A36
:101D500013D0752A5CD0782A5CD010465A460F9969
:101D60009047761CD3E017F8040B8DF80000002094
:101D70008DF80100E946012003E057F8049B4FF07D
:101D8000FF3069074FF0000501D40AE06D1C45459E
:101D90000DDA8542FADB19F805100029F6D106E0C4
:101DA0006D1C8542FCDB19F805100029F8D12E4482
:101DB00004E019F8010B5A460F9990476D1EF8D2AE
:101DC000A5E00A200021CDE90801C5F30250022850
:101DD0000DD001CFC117031E71F100030DDA4FF0D2
:101DE000000CD0EB0C006CEB01012D2308E0FF1D73
:101DF00027F00707F7E80201EDE72B0504D52B23B1
:101E00008DF8283001233BE0EB0739D02023F7E79A
:101E10000A2000E010200021CDE9080107E0102091
:101E2000002145F00405CDE908014FF00808C5F38D
:101E3000025002280FD001CF00214FF0000A2B07DB
:101E40001FD5702A0DD0DDE908C38CF0100C5CEAB8
:101E5000030C0CD015E0FF1D27F00707F7E802017F
:101E6000EBE740228DF828204FF0010A0BE050EA02
:101E7000010306D030238DF828308DF82920022365
:101E80009A46582A04D024A20DF120090B9209E0A9
:101E900026A2F9E7DDE90823FEF766F90B9B9B5CB8
:101EA00009F8013D50EA0102F4D1ADEB0900203000
:101EB0000890680701D44FF001080899884502DDB1
:101EC000A8EB010000E000208046002506E00AA8FB
:101ED0005A46405D0F9990476D1C761C5545F6DBC0
:101EE00004E030205A460F999047761CB8F1000163
:101EF000A8F10108F5DC05E019F8010B5A460F9925
:101F00009047761C0899481E08900029F4DC641C50
:101F1000C5E6000009280100303132333435363748
:101F20003839616263646566000000003031323325
:101F300034353637383941424344454600000000C5
:101F40001FB54FF6FF72012103A88DE8070010238B
:101F50000022A1210448FEF7A3FB10B1002004B029
:101F600010BD0120FBE700002800002013B54FF052
:101F7000FF33012269460248FFF7F9F900981CBDBA
:101F80007C000020FEF7F0FCFFF7D8FCFFF7E0FB39
:101F9000FFF75AFCFFF778FCFFF792FCFFF7ACFC69
:101FA000FFF7CEFF10B109A0FFF73AFE0025094C5C
:101FB00000F016F82078012803D1257006A0FFF75D
:101FC0002FFE0A20FEF796F9F2E700006F6B0D0A6C
:101FD00000000000E402002068656C6C6F0D0A00D0
:101FE0002DE9F05F00242D4D2D4EDFF8B8A04FF401
:101FF000805B4FF00108A1464FF4004700223821D2
:102000003046FEF77EFA002239465046FEF779FA4E
:1020100059463046FEF770FA88B305F8249000BFA1
:102020004FF400513046FEF767FA05EB840138B3F0
:1020300081F801904FF480413046FEF75DFA05EBE0
:10204000840120B381F8029039463046FEF754FAF5
:1020500005EB8401F0B181F803903220FEF74AF9D4
:10206000012238213046FEF74CFA0122394650460B
:10207000FEF747FA641C042CC0DBBDE8F09F00E0CB
:1020800002E005F82480CBE781F80180D2E781F8EF
:102090000280D9E781F80380DFE70000E402002036
:1020A000000C01400008014001020203040506077C
:1020B00008090A0B0C0D0E0F1010000000000000A4
:1020C00000000102030406070809000000000102E5
:1020D00003040000F4200008000000202800000095
:1020E000601C00081C21000828000020D006000009
:1020F000701C00080100000010000000000000003B
:1021000000127A0000000000FFFFFFFF010007132C
:0C21100000000000001B000000000000A8
:04000005080000ED02
:00000001FF
